{
  "contractName": "CryptoToys",
  "abi": [
    {
      "inputs": [],
      "stateMutability": "nonpayable",
      "type": "constructor"
    },
    {
      "anonymous": false,
      "inputs": [
        {
          "indexed": true,
          "internalType": "address",
          "name": "owner",
          "type": "address"
        },
        {
          "indexed": true,
          "internalType": "address",
          "name": "approved",
          "type": "address"
        },
        {
          "indexed": true,
          "internalType": "uint256",
          "name": "tokenId",
          "type": "uint256"
        }
      ],
      "name": "Approval",
      "type": "event"
    },
    {
      "anonymous": false,
      "inputs": [
        {
          "indexed": true,
          "internalType": "address",
          "name": "owner",
          "type": "address"
        },
        {
          "indexed": true,
          "internalType": "address",
          "name": "operator",
          "type": "address"
        },
        {
          "indexed": false,
          "internalType": "bool",
          "name": "approved",
          "type": "bool"
        }
      ],
      "name": "ApprovalForAll",
      "type": "event"
    },
    {
      "anonymous": false,
      "inputs": [
        {
          "indexed": true,
          "internalType": "address",
          "name": "from",
          "type": "address"
        },
        {
          "indexed": true,
          "internalType": "address",
          "name": "to",
          "type": "address"
        },
        {
          "indexed": true,
          "internalType": "uint256",
          "name": "tokenId",
          "type": "uint256"
        }
      ],
      "name": "Transfer",
      "type": "event"
    },
    {
      "inputs": [
        {
          "internalType": "uint256",
          "name": "",
          "type": "uint256"
        }
      ],
      "name": "allCryptoToys",
      "outputs": [
        {
          "internalType": "uint256",
          "name": "tokenId",
          "type": "uint256"
        },
        {
          "internalType": "string",
          "name": "tokenName",
          "type": "string"
        },
        {
          "internalType": "string",
          "name": "tokenURI",
          "type": "string"
        },
        {
          "internalType": "address payable",
          "name": "mintedBy",
          "type": "address"
        },
        {
          "internalType": "address payable",
          "name": "currentOwner",
          "type": "address"
        },
        {
          "internalType": "address payable",
          "name": "previousOwner",
          "type": "address"
        },
        {
          "internalType": "uint256",
          "name": "price",
          "type": "uint256"
        },
        {
          "internalType": "uint256",
          "name": "numberOfTransfers",
          "type": "uint256"
        },
        {
          "internalType": "bool",
          "name": "forSale",
          "type": "bool"
        }
      ],
      "stateMutability": "view",
      "type": "function",
      "constant": true
    },
    {
      "inputs": [
        {
          "internalType": "address",
          "name": "to",
          "type": "address"
        },
        {
          "internalType": "uint256",
          "name": "tokenId",
          "type": "uint256"
        }
      ],
      "name": "approve",
      "outputs": [],
      "stateMutability": "nonpayable",
      "type": "function"
    },
    {
      "inputs": [
        {
          "internalType": "address",
          "name": "owner",
          "type": "address"
        }
      ],
      "name": "balanceOf",
      "outputs": [
        {
          "internalType": "uint256",
          "name": "",
          "type": "uint256"
        }
      ],
      "stateMutability": "view",
      "type": "function",
      "constant": true
    },
    {
      "inputs": [],
      "name": "baseURI",
      "outputs": [
        {
          "internalType": "string",
          "name": "",
          "type": "string"
        }
      ],
      "stateMutability": "view",
      "type": "function",
      "constant": true
    },
    {
      "inputs": [],
      "name": "collectionName",
      "outputs": [
        {
          "internalType": "string",
          "name": "",
          "type": "string"
        }
      ],
      "stateMutability": "view",
      "type": "function",
      "constant": true
    },
    {
      "inputs": [],
      "name": "collectionNameSymbol",
      "outputs": [
        {
          "internalType": "string",
          "name": "",
          "type": "string"
        }
      ],
      "stateMutability": "view",
      "type": "function",
      "constant": true
    },
    {
      "inputs": [
        {
          "internalType": "bytes32",
          "name": "",
          "type": "bytes32"
        }
      ],
      "name": "colorPaletteUsed",
      "outputs": [
        {
          "internalType": "bool",
          "name": "",
          "type": "bool"
        }
      ],
      "stateMutability": "view",
      "type": "function",
      "constant": true
    },
    {
      "inputs": [],
      "name": "cryptoToyCounter",
      "outputs": [
        {
          "internalType": "uint256",
          "name": "",
          "type": "uint256"
        }
      ],
      "stateMutability": "view",
      "type": "function",
      "constant": true
    },
    {
      "inputs": [
        {
          "internalType": "uint256",
          "name": "tokenId",
          "type": "uint256"
        }
      ],
      "name": "getApproved",
      "outputs": [
        {
          "internalType": "address",
          "name": "",
          "type": "address"
        }
      ],
      "stateMutability": "view",
      "type": "function",
      "constant": true
    },
    {
      "inputs": [
        {
          "internalType": "address",
          "name": "owner",
          "type": "address"
        },
        {
          "internalType": "address",
          "name": "operator",
          "type": "address"
        }
      ],
      "name": "isApprovedForAll",
      "outputs": [
        {
          "internalType": "bool",
          "name": "",
          "type": "bool"
        }
      ],
      "stateMutability": "view",
      "type": "function",
      "constant": true
    },
    {
      "inputs": [],
      "name": "name",
      "outputs": [
        {
          "internalType": "string",
          "name": "",
          "type": "string"
        }
      ],
      "stateMutability": "view",
      "type": "function",
      "constant": true
    },
    {
      "inputs": [
        {
          "internalType": "uint256",
          "name": "tokenId",
          "type": "uint256"
        }
      ],
      "name": "ownerOf",
      "outputs": [
        {
          "internalType": "address",
          "name": "",
          "type": "address"
        }
      ],
      "stateMutability": "view",
      "type": "function",
      "constant": true
    },
    {
      "inputs": [
        {
          "internalType": "address",
          "name": "from",
          "type": "address"
        },
        {
          "internalType": "address",
          "name": "to",
          "type": "address"
        },
        {
          "internalType": "uint256",
          "name": "tokenId",
          "type": "uint256"
        }
      ],
      "name": "safeTransferFrom",
      "outputs": [],
      "stateMutability": "nonpayable",
      "type": "function"
    },
    {
      "inputs": [
        {
          "internalType": "address",
          "name": "from",
          "type": "address"
        },
        {
          "internalType": "address",
          "name": "to",
          "type": "address"
        },
        {
          "internalType": "uint256",
          "name": "tokenId",
          "type": "uint256"
        },
        {
          "internalType": "bytes",
          "name": "_data",
          "type": "bytes"
        }
      ],
      "name": "safeTransferFrom",
      "outputs": [],
      "stateMutability": "nonpayable",
      "type": "function"
    },
    {
      "inputs": [
        {
          "internalType": "address",
          "name": "operator",
          "type": "address"
        },
        {
          "internalType": "bool",
          "name": "approved",
          "type": "bool"
        }
      ],
      "name": "setApprovalForAll",
      "outputs": [],
      "stateMutability": "nonpayable",
      "type": "function"
    },
    {
      "inputs": [
        {
          "internalType": "bytes4",
          "name": "interfaceId",
          "type": "bytes4"
        }
      ],
      "name": "supportsInterface",
      "outputs": [
        {
          "internalType": "bool",
          "name": "",
          "type": "bool"
        }
      ],
      "stateMutability": "view",
      "type": "function",
      "constant": true
    },
    {
      "inputs": [],
      "name": "symbol",
      "outputs": [
        {
          "internalType": "string",
          "name": "",
          "type": "string"
        }
      ],
      "stateMutability": "view",
      "type": "function",
      "constant": true
    },
    {
      "inputs": [
        {
          "internalType": "uint256",
          "name": "index",
          "type": "uint256"
        }
      ],
      "name": "tokenByIndex",
      "outputs": [
        {
          "internalType": "uint256",
          "name": "",
          "type": "uint256"
        }
      ],
      "stateMutability": "view",
      "type": "function",
      "constant": true
    },
    {
      "inputs": [
        {
          "internalType": "string",
          "name": "",
          "type": "string"
        }
      ],
      "name": "tokenNameUsed",
      "outputs": [
        {
          "internalType": "bool",
          "name": "",
          "type": "bool"
        }
      ],
      "stateMutability": "view",
      "type": "function",
      "constant": true
    },
    {
      "inputs": [
        {
          "internalType": "address",
          "name": "owner",
          "type": "address"
        },
        {
          "internalType": "uint256",
          "name": "index",
          "type": "uint256"
        }
      ],
      "name": "tokenOfOwnerByIndex",
      "outputs": [
        {
          "internalType": "uint256",
          "name": "",
          "type": "uint256"
        }
      ],
      "stateMutability": "view",
      "type": "function",
      "constant": true
    },
    {
      "inputs": [
        {
          "internalType": "uint256",
          "name": "tokenId",
          "type": "uint256"
        }
      ],
      "name": "tokenURI",
      "outputs": [
        {
          "internalType": "string",
          "name": "",
          "type": "string"
        }
      ],
      "stateMutability": "view",
      "type": "function",
      "constant": true
    },
    {
      "inputs": [
        {
          "internalType": "string",
          "name": "",
          "type": "string"
        }
      ],
      "name": "tokenURIUsed",
      "outputs": [
        {
          "internalType": "bool",
          "name": "",
          "type": "bool"
        }
      ],
      "stateMutability": "view",
      "type": "function",
      "constant": true
    },
    {
      "inputs": [],
      "name": "totalSupply",
      "outputs": [
        {
          "internalType": "uint256",
          "name": "",
          "type": "uint256"
        }
      ],
      "stateMutability": "view",
      "type": "function",
      "constant": true
    },
    {
      "inputs": [
        {
          "internalType": "address",
          "name": "from",
          "type": "address"
        },
        {
          "internalType": "address",
          "name": "to",
          "type": "address"
        },
        {
          "internalType": "uint256",
          "name": "tokenId",
          "type": "uint256"
        }
      ],
      "name": "transferFrom",
      "outputs": [],
      "stateMutability": "nonpayable",
      "type": "function"
    },
    {
      "inputs": [
        {
          "internalType": "uint256",
          "name": "_tokenId",
          "type": "uint256"
        }
      ],
      "name": "getTokenOwner",
      "outputs": [
        {
          "internalType": "address",
          "name": "",
          "type": "address"
        }
      ],
      "stateMutability": "view",
      "type": "function",
      "constant": true
    },
    {
      "inputs": [
        {
          "internalType": "uint256",
          "name": "_tokenId",
          "type": "uint256"
        }
      ],
      "name": "getTokenMetaData",
      "outputs": [
        {
          "internalType": "string",
          "name": "",
          "type": "string"
        }
      ],
      "stateMutability": "view",
      "type": "function",
      "constant": true
    },
    {
      "inputs": [],
      "name": "getNumberOfTokensMinted",
      "outputs": [
        {
          "internalType": "uint256",
          "name": "",
          "type": "uint256"
        }
      ],
      "stateMutability": "view",
      "type": "function",
      "constant": true
    },
    {
      "inputs": [
        {
          "internalType": "address",
          "name": "_owner",
          "type": "address"
        }
      ],
      "name": "getNumberOfTokensOwned",
      "outputs": [
        {
          "internalType": "uint256",
          "name": "",
          "type": "uint256"
        }
      ],
      "stateMutability": "view",
      "type": "function",
      "constant": true
    },
    {
      "inputs": [
        {
          "internalType": "uint256",
          "name": "_tokenId",
          "type": "uint256"
        }
      ],
      "name": "getTokenExists",
      "outputs": [
        {
          "internalType": "bool",
          "name": "",
          "type": "bool"
        }
      ],
      "stateMutability": "view",
      "type": "function",
      "constant": true
    },
    {
      "inputs": [
        {
          "internalType": "string[]",
          "name": "_colors",
          "type": "string[]"
        }
      ],
      "name": "isColorPaletteUsed",
      "outputs": [
        {
          "internalType": "bool",
          "name": "",
          "type": "bool"
        }
      ],
      "stateMutability": "view",
      "type": "function",
      "constant": true
    },
    {
      "inputs": [
        {
          "internalType": "string",
          "name": "_name",
          "type": "string"
        },
        {
          "internalType": "string",
          "name": "_tokenURI",
          "type": "string"
        },
        {
          "internalType": "uint256",
          "name": "_price",
          "type": "uint256"
        },
        {
          "internalType": "string[]",
          "name": "_colors",
          "type": "string[]"
        }
      ],
      "name": "mintCryptoToy",
      "outputs": [],
      "stateMutability": "nonpayable",
      "type": "function"
    },
    {
      "inputs": [
        {
          "internalType": "uint256",
          "name": "_tokenId",
          "type": "uint256"
        }
      ],
      "name": "buyToken",
      "outputs": [],
      "stateMutability": "payable",
      "type": "function",
      "payable": true
    },
    {
      "inputs": [
        {
          "internalType": "uint256",
          "name": "_tokenId",
          "type": "uint256"
        },
        {
          "internalType": "uint256",
          "name": "_newPrice",
          "type": "uint256"
        }
      ],
      "name": "changeTokenPrice",
      "outputs": [],
      "stateMutability": "nonpayable",
      "type": "function"
    },
    {
      "inputs": [
        {
          "internalType": "uint256",
          "name": "_tokenId",
          "type": "uint256"
        }
      ],
      "name": "toggleForSale",
      "outputs": [],
      "stateMutability": "nonpayable",
      "type": "function"
    }
  ],
  "bytecode": "0x60806040523480156200001157600080fd5b506040518060400160405280601681526020017f43727970746f20546f797320436f6c6c656374696f6e000000000000000000008152506040518060400160405280600281526020017f4354000000000000000000000000000000000000000000000000000000000000815250620000966301ffc9a760e01b6200016860201b60201c565b8160069080519060200190620000ae929190620003bd565b508060079080519060200190620000c7929190620003bd565b50620000e06380ac58cd60e01b6200016860201b60201c565b620000f8635b5e139f60e01b6200016860201b60201c565b6200011063780e9d6360e01b6200016860201b60201c565b5050620001226200027160201b60201c565b600a908051906020019062000139929190620003bd565b506200014a6200031760201b60201c565b600b908051906020019062000161929190620003bd565b5062000473565b63ffffffff60e01b817bffffffffffffffffffffffffffffffffffffffffffffffffffffffff1916141562000205576040517f08c379a000000000000000000000000000000000000000000000000000000000815260040180806020018281038252601c8152602001807f4552433136353a20696e76616c696420696e746572666163652069640000000081525060200191505060405180910390fd5b6001600080837bffffffffffffffffffffffffffffffffffffffffffffffffffffffff19167bffffffffffffffffffffffffffffffffffffffffffffffffffffffff1916815260200190815260200160002060006101000a81548160ff02191690831515021790555050565b606060068054600181600116156101000203166002900480601f0160208091040260200160405190810160405280929190818152602001828054600181600116156101000203166002900480156200030d5780601f10620002e1576101008083540402835291602001916200030d565b820191906000526020600020905b815481529060010190602001808311620002ef57829003601f168201915b5050505050905090565b606060078054600181600116156101000203166002900480601f016020809104026020016040519081016040528092919081815260200182805460018160011615610100020316600290048015620003b35780601f106200038757610100808354040283529160200191620003b3565b820191906000526020600020905b8154815290600101906020018083116200039557829003601f168201915b5050505050905090565b828054600181600116156101000203166002900490600052602060002090601f016020900481019282620003f5576000855562000441565b82601f106200041057805160ff191683800117855562000441565b8280016001018555821562000441579182015b828111156200044057825182559160200191906001019062000423565b5b50905062000450919062000454565b5090565b5b808211156200046f57600081600090555060010162000455565b5090565b614b0680620004836000396000f3fe6080604052600436106101f95760003560e01c806367c623cf1161010d578063a32018b9116100a0578063c5ffa3061161006f578063c5ffa306146107c2578063c87b56dd146107ff578063cc151f3a1461083c578063e5326ab114610867578063e985e9c514610892576101f9565b8063a32018b9146106f6578063a5cd761f1461071f578063b77c92f21461075c578063b88d4fde14610799576101f9565b8063739fe54b116100dc578063739fe54b1461063c578063899c66761461067957806395d89b41146106a2578063a22cb465146106cd576101f9565b806367c623cf1461056c5780636c0360eb146105a95780636f9507f9146105d457806370a08231146105ff576101f9565b80632f745c59116101905780634f6ccce71161015f5780634f6ccce714610447578063512f93301461048457806362e8e8ac146104c95780636352211e146104f2578063650df01b1461052f576101f9565b80632f745c591461037957806333832b2e146103b657806342842e0e146103f35780634847f5461461041c576101f9565b8063142687f3116101cc578063142687f3146102cc57806318160ddd1461030957806323b872dd146103345780632d296bf11461035d576101f9565b806301ffc9a7146101fe57806306fdde031461023b578063081812fc14610266578063095ea7b3146102a3575b600080fd5b34801561020a57600080fd5b5061022560048036038101906102209190613d82565b6108cf565b6040516102329190614389565b60405180910390f35b34801561024757600080fd5b50610250610936565b60405161025d91906143a4565b60405180910390f35b34801561027257600080fd5b5061028d60048036038101906102889190613e9c565b6109d8565b60405161029a919061434c565b60405180910390f35b3480156102af57600080fd5b506102ca60048036038101906102c59190613cd8565b610a73565b005b3480156102d857600080fd5b506102f360048036038101906102ee9190613e9c565b610bb7565b6040516103009190614389565b60405180910390f35b34801561031557600080fd5b5061031e610bc9565b60405161032b9190614506565b60405180910390f35b34801561034057600080fd5b5061035b60048036038101906103569190613bd2565b610bda565b005b61037760048036038101906103729190613e9c565b610c50565b005b34801561038557600080fd5b506103a0600480360381019061039b9190613cd8565b61119d565b6040516103ad9190614506565b60405180910390f35b3480156103c257600080fd5b506103dd60048036038101906103d89190613b6d565b6111f8565b6040516103ea9190614506565b60405180910390f35b3480156103ff57600080fd5b5061041a60048036038101906104159190613bd2565b61120a565b005b34801561042857600080fd5b5061043161122a565b60405161043e9190614506565b60405180910390f35b34801561045357600080fd5b5061046e60048036038101906104699190613e9c565b611230565b60405161047b9190614506565b60405180910390f35b34801561049057600080fd5b506104ab60048036038101906104a69190613e9c565b611253565b6040516104c099989796959493929190614521565b60405180910390f35b3480156104d557600080fd5b506104f060048036038101906104eb9190613ec5565b61143e565b005b3480156104fe57600080fd5b5061051960048036038101906105149190613e9c565b6114de565b604051610526919061434c565b60405180910390f35b34801561053b57600080fd5b5061055660048036038101906105519190613d14565b611515565b6040516105639190614389565b60405180910390f35b34801561057857600080fd5b50610593600480360381019061058e9190613e9c565b611554565b6040516105a091906143a4565b60405180910390f35b3480156105b557600080fd5b506105be611566565b6040516105cb91906143a4565b60405180910390f35b3480156105e057600080fd5b506105e9611608565b6040516105f691906143a4565b60405180910390f35b34801561060b57600080fd5b5061062660048036038101906106219190613b6d565b6116a6565b6040516106339190614506565b60405180910390f35b34801561064857600080fd5b50610663600480360381019061065e9190613dab565b61177b565b6040516106709190614389565b60405180910390f35b34801561068557600080fd5b506106a0600480360381019061069b9190613dec565b6117b1565b005b3480156106ae57600080fd5b506106b7611a8c565b6040516106c491906143a4565b60405180910390f35b3480156106d957600080fd5b506106f460048036038101906106ef9190613c9c565b611b2e565b005b34801561070257600080fd5b5061071d60048036038101906107189190613e9c565b611ce4565b005b34801561072b57600080fd5b5061074660048036038101906107419190613e9c565b611dba565b604051610753919061434c565b60405180910390f35b34801561076857600080fd5b50610783600480360381019061077e9190613dab565b611dcc565b6040516107909190614389565b60405180910390f35b3480156107a557600080fd5b506107c060048036038101906107bb9190613c21565b611e02565b005b3480156107ce57600080fd5b506107e960048036038101906107e49190613d59565b611e7a565b6040516107f69190614389565b60405180910390f35b34801561080b57600080fd5b5061082660048036038101906108219190613e9c565b611e9a565b60405161083391906143a4565b60405180910390f35b34801561084857600080fd5b5061085161216b565b60405161085e9190614506565b60405180910390f35b34801561087357600080fd5b5061087c61217a565b60405161088991906143a4565b60405180910390f35b34801561089e57600080fd5b506108b960048036038101906108b49190613b96565b612218565b6040516108c69190614389565b60405180910390f35b6000806000837bffffffffffffffffffffffffffffffffffffffffffffffffffffffff19167bffffffffffffffffffffffffffffffffffffffffffffffffffffffff1916815260200190815260200160002060009054906101000a900460ff169050919050565b606060068054600181600116156101000203166002900480601f0160208091040260200160405190810160405280929190818152602001828054600181600116156101000203166002900480156109ce5780601f106109a3576101008083540402835291602001916109ce565b820191906000526020600020905b8154815290600101906020018083116109b157829003601f168201915b5050505050905090565b60006109e3826122ac565b610a38576040517f08c379a000000000000000000000000000000000000000000000000000000000815260040180806020018281038252602c8152602001806149cf602c913960400191505060405180910390fd5b6004600083815260200190815260200160002060009054906101000a900473ffffffffffffffffffffffffffffffffffffffff169050919050565b6000610a7e826114de565b90508073ffffffffffffffffffffffffffffffffffffffff168373ffffffffffffffffffffffffffffffffffffffff161415610b05576040517f08c379a0000000000000000000000000000000000000000000000000000000008152600401808060200182810382526021815260200180614a7f6021913960400191505060405180910390fd5b8073ffffffffffffffffffffffffffffffffffffffff16610b246122c9565b73ffffffffffffffffffffffffffffffffffffffff161480610b535750610b5281610b4d6122c9565b612218565b5b610ba8576040517f08c379a00000000000000000000000000000000000000000000000000000000081526004018080602001828103825260388152602001806149226038913960400191505060405180910390fd5b610bb283836122d1565b505050565b6000610bc2826122ac565b9050919050565b6000610bd5600261238a565b905090565b610beb610be56122c9565b8261239f565b610c40576040517f08c379a0000000000000000000000000000000000000000000000000000000008152600401808060200182810382526031815260200180614aa06031913960400191505060405180910390fd5b610c4b838383612493565b505050565b610c59816126d6565b610c6281612721565b6000600d60008381526020019081526020016000206040518061012001604052908160008201548152602001600182018054600181600116156101000203166002900480601f016020809104026020016040519081016040528092919081815260200182805460018160011615610100020316600290048015610d265780601f10610cfb57610100808354040283529160200191610d26565b820191906000526020600020905b815481529060010190602001808311610d0957829003601f168201915b50505050508152602001600282018054600181600116156101000203166002900480601f016020809104026020016040519081016040528092919081815260200182805460018160011615610100020316600290048015610dc85780601f10610d9d57610100808354040283529160200191610dc8565b820191906000526020600020905b815481529060010190602001808311610dab57829003601f168201915b505050505081526020016003820160009054906101000a900473ffffffffffffffffffffffffffffffffffffffff1673ffffffffffffffffffffffffffffffffffffffff1673ffffffffffffffffffffffffffffffffffffffff1681526020016004820160009054906101000a900473ffffffffffffffffffffffffffffffffffffffff1673ffffffffffffffffffffffffffffffffffffffff1673ffffffffffffffffffffffffffffffffffffffff1681526020016005820160009054906101000a900473ffffffffffffffffffffffffffffffffffffffff1673ffffffffffffffffffffffffffffffffffffffff1673ffffffffffffffffffffffffffffffffffffffff16815260200160068201548152602001600782015481526020016008820160009054906101000a900460ff16151515158152505090508060c00151341015610f4b576040517f08c379a0000000000000000000000000000000000000000000000000000000008152600401610f4290614466565b60405180910390fd5b610f5e610f57836114de565b3384612493565b6000816080015190508073ffffffffffffffffffffffffffffffffffffffff166108fc349081150290604051600060405180830381858888f19350505050158015610fad573d6000803e3d6000fd5b5081608001518260a0019073ffffffffffffffffffffffffffffffffffffffff16908173ffffffffffffffffffffffffffffffffffffffff168152505033826080019073ffffffffffffffffffffffffffffffffffffffff16908173ffffffffffffffffffffffffffffffffffffffff168152505060018260e001818151019150818152505081600d600085815260200190815260200160002060008201518160000155602082015181600101908051906020019061106d9291906138e2565b50604082015181600201908051906020019061108a9291906138e2565b5060608201518160030160006101000a81548173ffffffffffffffffffffffffffffffffffffffff021916908373ffffffffffffffffffffffffffffffffffffffff16021790555060808201518160040160006101000a81548173ffffffffffffffffffffffffffffffffffffffff021916908373ffffffffffffffffffffffffffffffffffffffff16021790555060a08201518160050160006101000a81548173ffffffffffffffffffffffffffffffffffffffff021916908373ffffffffffffffffffffffffffffffffffffffff16021790555060c0820151816006015560e082015181600701556101008201518160080160006101000a81548160ff021916908315150217905550905050505050565b60006111f082600160008673ffffffffffffffffffffffffffffffffffffffff1673ffffffffffffffffffffffffffffffffffffffff16815260200190815260200160002061287490919063ffffffff16565b905092915050565b6000611203826116a6565b9050919050565b61122583838360405180602001604052806000815250611e02565b505050565b600c5481565b60008061124783600261288e90919063ffffffff16565b50905080915050919050565b600d602052806000526040600020600091509050806000015490806001018054600181600116156101000203166002900480601f0160208091040260200160405190810160405280929190818152602001828054600181600116156101000203166002900480156113055780601f106112da57610100808354040283529160200191611305565b820191906000526020600020905b8154815290600101906020018083116112e857829003601f168201915b505050505090806002018054600181600116156101000203166002900480601f0160208091040260200160405190810160405280929190818152602001828054600181600116156101000203166002900480156113a35780601f10611378576101008083540402835291602001916113a3565b820191906000526020600020905b81548152906001019060200180831161138657829003601f168201915b5050505050908060030160009054906101000a900473ffffffffffffffffffffffffffffffffffffffff16908060040160009054906101000a900473ffffffffffffffffffffffffffffffffffffffff16908060050160009054906101000a900473ffffffffffffffffffffffffffffffffffffffff16908060060154908060070154908060080160009054906101000a900460ff16905089565b81611448816114de565b73ffffffffffffffffffffffffffffffffffffffff163373ffffffffffffffffffffffffffffffffffffffff16146114b5576040517f08c379a00000000000000000000000000000000000000000000000000000000081526004016114ac90614446565b60405180910390fd5b6114be836126d6565b81600d600085815260200190815260200160002060060181905550505050565b600061150e826040518060600160405280602981526020016149846029913960026128ba9092919063ffffffff16565b9050919050565b6000600f600061153085859061152b919061477a565b6128d9565b815260200190815260200160002060009054906101000a900460ff16905092915050565b606061155f82611e9a565b9050919050565b606060098054600181600116156101000203166002900480601f0160208091040260200160405190810160405280929190818152602001828054600181600116156101000203166002900480156115fe5780601f106115d3576101008083540402835291602001916115fe565b820191906000526020600020905b8154815290600101906020018083116115e157829003601f168201915b5050505050905090565b600b8054600181600116156101000203166002900480601f01602080910402602001604051908101604052809291908181526020018280546001816001161561010002031660029004801561169e5780601f106116735761010080835404028352916020019161169e565b820191906000526020600020905b81548152906001019060200180831161168157829003601f168201915b505050505081565b60008073ffffffffffffffffffffffffffffffffffffffff168273ffffffffffffffffffffffffffffffffffffffff16141561172d576040517f08c379a000000000000000000000000000000000000000000000000000000000815260040180806020018281038252602a81526020018061495a602a913960400191505060405180910390fd5b611774600160008473ffffffffffffffffffffffffffffffffffffffff1673ffffffffffffffffffffffffffffffffffffffff168152602001908152602001600020612909565b9050919050565b600e818051602081018201805184825260208301602085012081835280955050505050506000915054906101000a900460ff1681565b6117bf6001600c540161291e565b6117cb8585848461296a565b600c600081548092919060010191905055506117e933600c54612abd565b6117f5600c5485612cb1565b600f600061180e848490611809919061477a565b6128d9565b815260200190815260200160002060009054906101000a905050600160108560405161183a9190614335565b908152602001604051809103902060006101000a81548160ff0219169083151502179055506001600e866040516118719190614335565b908152602001604051809103902060006101000a81548160ff021916908315150217905550604051806101200160405280600c5481526020018681526020018581526020013373ffffffffffffffffffffffffffffffffffffffff1681526020013373ffffffffffffffffffffffffffffffffffffffff168152602001600073ffffffffffffffffffffffffffffffffffffffff1681526020018481526020016000815260200160011515815250600d6000600c54815260200190815260200160002060008201518160000155602082015181600101908051906020019061195a9291906138e2565b5060408201518160020190805190602001906119779291906138e2565b5060608201518160030160006101000a81548173ffffffffffffffffffffffffffffffffffffffff021916908373ffffffffffffffffffffffffffffffffffffffff16021790555060808201518160040160006101000a81548173ffffffffffffffffffffffffffffffffffffffff021916908373ffffffffffffffffffffffffffffffffffffffff16021790555060a08201518160050160006101000a81548173ffffffffffffffffffffffffffffffffffffffff021916908373ffffffffffffffffffffffffffffffffffffffff16021790555060c0820151816006015560e082015181600701556101008201518160080160006101000a81548160ff0219169083151502179055509050505050505050565b606060078054600181600116156101000203166002900480601f016020809104026020016040519081016040528092919081815260200182805460018160011615610100020316600290048015611b245780601f10611af957610100808354040283529160200191611b24565b820191906000526020600020905b815481529060010190602001808311611b0757829003601f168201915b5050505050905090565b611b366122c9565b73ffffffffffffffffffffffffffffffffffffffff168273ffffffffffffffffffffffffffffffffffffffff161415611bd7576040517f08c379a00000000000000000000000000000000000000000000000000000000081526004018080602001828103825260198152602001807f4552433732313a20617070726f766520746f2063616c6c65720000000000000081525060200191505060405180910390fd5b8060056000611be46122c9565b73ffffffffffffffffffffffffffffffffffffffff1673ffffffffffffffffffffffffffffffffffffffff16815260200190815260200160002060008473ffffffffffffffffffffffffffffffffffffffff1673ffffffffffffffffffffffffffffffffffffffff16815260200190815260200160002060006101000a81548160ff0219169083151502179055508173ffffffffffffffffffffffffffffffffffffffff16611c916122c9565b73ffffffffffffffffffffffffffffffffffffffff167f17307eab39ab6107e8899845ad3d59bd9653f200f220920489ca2b5937696c318360405180821515815260200191505060405180910390a35050565b80611cee816114de565b73ffffffffffffffffffffffffffffffffffffffff163373ffffffffffffffffffffffffffffffffffffffff1614611d5b576040517f08c379a0000000000000000000000000000000000000000000000000000000008152600401611d5290614446565b60405180910390fd5b611d64826126d6565b600d600083815260200190815260200160002060080160009054906101000a900460ff1615600d600084815260200190815260200160002060080160006101000a81548160ff0219169083151502179055505050565b6000611dc5826114de565b9050919050565b6010818051602081018201805184825260208301602085012081835280955050505050506000915054906101000a900460ff1681565b611e13611e0d6122c9565b8361239f565b611e68576040517f08c379a0000000000000000000000000000000000000000000000000000000008152600401808060200182810382526031815260200180614aa06031913960400191505060405180910390fd5b611e7484848484612d3b565b50505050565b600f6020528060005260406000206000915054906101000a900460ff1681565b6060611ea5826122ac565b611efa576040517f08c379a000000000000000000000000000000000000000000000000000000000815260040180806020018281038252602f815260200180614a50602f913960400191505060405180910390fd5b6000600860008481526020019081526020016000208054600181600116156101000203166002900480601f016020809104026020016040519081016040528092919081815260200182805460018160011615610100020316600290048015611fa35780601f10611f7857610100808354040283529160200191611fa3565b820191906000526020600020905b815481529060010190602001808311611f8657829003601f168201915b505050505090506000611fb4611566565b9050600081511415611fca578192505050612166565b60008251111561209b5780826040516020018083805190602001908083835b6020831061200c5780518252602082019150602081019050602083039250611fe9565b6001836020036101000a03801982511681845116808217855250505050505090500182805190602001908083835b6020831061205d578051825260208201915060208101905060208303925061203a565b6001836020036101000a0380198251168184511680821785525050505050509050019250505060405160208183030381529060405292505050612166565b806120a585612dad565b6040516020018083805190602001908083835b602083106120db57805182526020820191506020810190506020830392506120b8565b6001836020036101000a03801982511681845116808217855250505050505090500182805190602001908083835b6020831061212c5780518252602082019150602081019050602083039250612109565b6001836020036101000a03801982511681845116808217855250505050505090500192505050604051602081830303815290604052925050505b919050565b6000612175610bc9565b905090565b600a8054600181600116156101000203166002900480601f0160208091040260200160405190810160405280929190818152602001828054600181600116156101000203166002900480156122105780601f106121e557610100808354040283529160200191612210565b820191906000526020600020905b8154815290600101906020018083116121f357829003601f168201915b505050505081565b6000600560008473ffffffffffffffffffffffffffffffffffffffff1673ffffffffffffffffffffffffffffffffffffffff16815260200190815260200160002060008373ffffffffffffffffffffffffffffffffffffffff1673ffffffffffffffffffffffffffffffffffffffff16815260200190815260200160002060009054906101000a900460ff16905092915050565b60006122c2826002612ef490919063ffffffff16565b9050919050565b600033905090565b816004600083815260200190815260200160002060006101000a81548173ffffffffffffffffffffffffffffffffffffffff021916908373ffffffffffffffffffffffffffffffffffffffff160217905550808273ffffffffffffffffffffffffffffffffffffffff16612344836114de565b73ffffffffffffffffffffffffffffffffffffffff167f8c5be1e5ebec7d5bd14f71427d1e84f3dd0314c0f7b2291e5b200ac8c7c3b92560405160405180910390a45050565b600061239882600001612f0e565b9050919050565b60006123aa826122ac565b6123ff576040517f08c379a000000000000000000000000000000000000000000000000000000000815260040180806020018281038252602c8152602001806148f6602c913960400191505060405180910390fd5b600061240a836114de565b90508073ffffffffffffffffffffffffffffffffffffffff168473ffffffffffffffffffffffffffffffffffffffff16148061247957508373ffffffffffffffffffffffffffffffffffffffff16612461846109d8565b73ffffffffffffffffffffffffffffffffffffffff16145b8061248a57506124898185612218565b5b91505092915050565b8273ffffffffffffffffffffffffffffffffffffffff166124b3826114de565b73ffffffffffffffffffffffffffffffffffffffff161461251f576040517f08c379a0000000000000000000000000000000000000000000000000000000008152600401808060200182810382526029815260200180614a276029913960400191505060405180910390fd5b600073ffffffffffffffffffffffffffffffffffffffff168273ffffffffffffffffffffffffffffffffffffffff1614156125a5576040517f08c379a00000000000000000000000000000000000000000000000000000000081526004018080602001828103825260248152602001806148ac6024913960400191505060405180910390fd5b6125b0838383612f1f565b6125bb6000826122d1565b61260c81600160008673ffffffffffffffffffffffffffffffffffffffff1673ffffffffffffffffffffffffffffffffffffffff168152602001908152602001600020612f2490919063ffffffff16565b5061265e81600160008573ffffffffffffffffffffffffffffffffffffffff1673ffffffffffffffffffffffffffffffffffffffff168152602001908152602001600020612f3e90919063ffffffff16565b5061267581836002612f589092919063ffffffff16565b50808273ffffffffffffffffffffffffffffffffffffffff168473ffffffffffffffffffffffffffffffffffffffff167fddf252ad1be2c89b69c2b068fc378daa952ba7f163c4a11628f55a4df523b3ef60405160405180910390a4505050565b6126df816122ac565b61271e576040517f08c379a0000000000000000000000000000000000000000000000000000000008152600401612715906144e6565b60405180910390fd5b50565b600061272c826114de565b9050600073ffffffffffffffffffffffffffffffffffffffff168173ffffffffffffffffffffffffffffffffffffffff16141561279e576040517f08c379a0000000000000000000000000000000000000000000000000000000008152600401612795906144c6565b60405180910390fd5b3373ffffffffffffffffffffffffffffffffffffffff168173ffffffffffffffffffffffffffffffffffffffff16141561280d576040517f08c379a000000000000000000000000000000000000000000000000000000000815260040161280490614486565b60405180910390fd5b600d600083815260200190815260200160002060080160009054906101000a900460ff16612870576040517f08c379a000000000000000000000000000000000000000000000000000000000815260040161286790614406565b60405180910390fd5b5050565b60006128838360000183612f8d565b60001c905092915050565b6000806000806128a18660000186613010565b915091508160001c8160001c9350935050509250929050565b60006128cd846000018460001b846130a9565b60001c90509392505050565b6000816040516020016128ec9190614367565b604051602081830303815290604052805190602001209050919050565b60006129178260000161319f565b9050919050565b612927816122ac565b15612967576040517f08c379a000000000000000000000000000000000000000000000000000000000815260040161295e90614426565b60405180910390fd5b50565b600f600061298384849061297e919061477a565b6128d9565b815260200190815260200160002060009054906101000a900460ff16156129df576040517f08c379a00000000000000000000000000000000000000000000000000000000081526004016129d6906144a6565b60405180910390fd5b6010836040516129ef9190614335565b908152602001604051809103902060009054906101000a900460ff1615612a4b576040517f08c379a0000000000000000000000000000000000000000000000000000000008152600401612a42906143c6565b60405180910390fd5b600e84604051612a5b9190614335565b908152602001604051809103902060009054906101000a900460ff1615612ab7576040517f08c379a0000000000000000000000000000000000000000000000000000000008152600401612aae906143e6565b60405180910390fd5b50505050565b600073ffffffffffffffffffffffffffffffffffffffff168273ffffffffffffffffffffffffffffffffffffffff161415612b60576040517f08c379a00000000000000000000000000000000000000000000000000000000081526004018080602001828103825260208152602001807f4552433732313a206d696e7420746f20746865207a65726f206164647265737381525060200191505060405180910390fd5b612b69816122ac565b15612bdc576040517f08c379a000000000000000000000000000000000000000000000000000000000815260040180806020018281038252601c8152602001807f4552433732313a20746f6b656e20616c7265616479206d696e7465640000000081525060200191505060405180910390fd5b612be860008383612f1f565b612c3981600160008573ffffffffffffffffffffffffffffffffffffffff1673ffffffffffffffffffffffffffffffffffffffff168152602001908152602001600020612f3e90919063ffffffff16565b50612c5081836002612f589092919063ffffffff16565b50808273ffffffffffffffffffffffffffffffffffffffff16600073ffffffffffffffffffffffffffffffffffffffff167fddf252ad1be2c89b69c2b068fc378daa952ba7f163c4a11628f55a4df523b3ef60405160405180910390a45050565b612cba826122ac565b612d0f576040517f08c379a000000000000000000000000000000000000000000000000000000000815260040180806020018281038252602c8152602001806149fb602c913960400191505060405180910390fd5b80600860008481526020019081526020016000209080519060200190612d369291906138e2565b505050565b612d46848484612493565b612d52848484846131b0565b612da7576040517f08c379a000000000000000000000000000000000000000000000000000000000815260040180806020018281038252603281526020018061487a6032913960400191505060405180910390fd5b50505050565b60606000821415612df5576040518060400160405280600181526020017f30000000000000000000000000000000000000000000000000000000000000008152509050612eef565b600082905060005b60008214612e1f578080600101915050600a8281612e1757fe5b049150612dfd565b60008167ffffffffffffffff81118015612e3857600080fd5b506040519080825280601f01601f191660200182016040528015612e6b5781602001600182028036833780820191505090505b50905060006001830390508593505b60008414612ee757600a8481612e8c57fe5b0660300160f81b82828060019003935081518110612ea657fe5b60200101907effffffffffffffffffffffffffffffffffffffffffffffffffffffffffffff1916908160001a905350600a8481612edf57fe5b049350612e7a565b819450505050505b919050565b6000612f06836000018360001b6133c9565b905092915050565b600081600001805490509050919050565b505050565b6000612f36836000018360001b6133ec565b905092915050565b6000612f50836000018360001b6134d4565b905092915050565b6000612f84846000018460001b8473ffffffffffffffffffffffffffffffffffffffff1660001b613544565b90509392505050565b600081836000018054905011612fee576040517f08c379a00000000000000000000000000000000000000000000000000000000081526004018080602001828103825260228152602001806148586022913960400191505060405180910390fd5b826000018281548110612ffd57fe5b9060005260206000200154905092915050565b60008082846000018054905011613072576040517f08c379a00000000000000000000000000000000000000000000000000000000081526004018080602001828103825260228152602001806149ad6022913960400191505060405180910390fd5b600084600001848154811061308357fe5b906000526020600020906002020190508060000154816001015492509250509250929050565b60008084600101600085815260200190815260200160002054905060008114158390613170576040517f08c379a00000000000000000000000000000000000000000000000000000000081526004018080602001828103825283818151815260200191508051906020019080838360005b8381101561313557808201518184015260208101905061311a565b50505050905090810190601f1680156131625780820380516001836020036101000a031916815260200191505b509250505060405180910390fd5b5084600001600182038154811061318357fe5b9060005260206000209060020201600101549150509392505050565b600081600001805490509050919050565b60006131d18473ffffffffffffffffffffffffffffffffffffffff16613620565b6131de57600190506133c1565b600061334863150b7a0260e01b6131f36122c9565b888787604051602401808573ffffffffffffffffffffffffffffffffffffffff1681526020018473ffffffffffffffffffffffffffffffffffffffff16815260200183815260200180602001828103825283818151815260200191508051906020019080838360005b8381101561327757808201518184015260208101905061325c565b50505050905090810190601f1680156132a45780820380516001836020036101000a031916815260200191505b5095505050505050604051602081830303815290604052907bffffffffffffffffffffffffffffffffffffffffffffffffffffffff19166020820180517bffffffffffffffffffffffffffffffffffffffffffffffffffffffff838183161783525050505060405180606001604052806032815260200161487a603291398773ffffffffffffffffffffffffffffffffffffffff166136339092919063ffffffff16565b9050600081806020019051602081101561336157600080fd5b8101908080519060200190929190505050905063150b7a0260e01b7bffffffffffffffffffffffffffffffffffffffffffffffffffffffff1916817bffffffffffffffffffffffffffffffffffffffffffffffffffffffff191614925050505b949350505050565b600080836001016000848152602001908152602001600020541415905092915050565b600080836001016000848152602001908152602001600020549050600081146134c8576000600182039050600060018660000180549050039050600086600001828154811061343757fe5b906000526020600020015490508087600001848154811061345457fe5b906000526020600020018190555060018301876001016000838152602001908152602001600020819055508660000180548061348c57fe5b600190038181906000526020600020016000905590558660010160008781526020019081526020016000206000905560019450505050506134ce565b60009150505b92915050565b60006134e0838361364b565b61353957826000018290806001815401808255809150506001900390600052602060002001600090919091909150558260000180549050836001016000848152602001908152602001600020819055506001905061353e565b600090505b92915050565b60008084600101600085815260200190815260200160002054905060008114156135eb57846000016040518060400160405280868152602001858152509080600181540180825580915050600190039060005260206000209060020201600090919091909150600082015181600001556020820151816001015550508460000180549050856001016000868152602001908152602001600020819055506001915050613619565b828560000160018303815481106135fe57fe5b90600052602060002090600202016001018190555060009150505b9392505050565b600080823b905060008111915050919050565b6060613642848460008561366e565b90509392505050565b600080836001016000848152602001908152602001600020541415905092915050565b6060824710156136c9576040517f08c379a00000000000000000000000000000000000000000000000000000000081526004018080602001828103825260268152602001806148d06026913960400191505060405180910390fd5b6136d285613620565b613744576040517f08c379a000000000000000000000000000000000000000000000000000000000815260040180806020018281038252601d8152602001807f416464726573733a2063616c6c20746f206e6f6e2d636f6e747261637400000081525060200191505060405180910390fd5b6000808673ffffffffffffffffffffffffffffffffffffffff1685876040518082805190602001908083835b602083106137935780518252602082019150602081019050602083039250613770565b6001836020036101000a03801982511681845116808217855250505050505090500191505060006040518083038185875af1925050503d80600081146137f5576040519150601f19603f3d011682016040523d82523d6000602084013e6137fa565b606091505b509150915061380a828286613816565b92505050949350505050565b60608315613826578290506138db565b6000835111156138395782518084602001fd5b816040517f08c379a00000000000000000000000000000000000000000000000000000000081526004018080602001828103825283818151815260200191508051906020019080838360005b838110156138a0578082015181840152602081019050613885565b50505050905090810190601f1680156138cd5780820380516001836020036101000a031916815260200191505b509250505060405180910390fd5b9392505050565b828054600181600116156101000203166002900490600052602060002090601f016020900481019282613918576000855561395f565b82601f1061393157805160ff191683800117855561395f565b8280016001018555821561395f579182015b8281111561395e578251825591602001919060010190613943565b5b50905061396c9190613970565b5090565b5b80821115613989576000816000905550600101613971565b5090565b60006139a061399b846145ed565b6145bc565b9050808382526020820190508260005b858110156139e057813585016139c68882613b2e565b8452602084019350602083019250506001810190506139b0565b5050509392505050565b60006139fd6139f884614619565b6145bc565b905082815260208101848484011115613a1557600080fd5b613a2084828561478f565b509392505050565b6000613a3b613a3684614649565b6145bc565b905082815260208101848484011115613a5357600080fd5b613a5e84828561478f565b509392505050565b600081359050613a75816147e4565b92915050565b60008083601f840112613a8d57600080fd5b8235905067ffffffffffffffff811115613aa657600080fd5b602083019150836020820283011115613abe57600080fd5b9250929050565b600081359050613ad4816147fb565b92915050565b600081359050613ae981614812565b92915050565b600081359050613afe81614829565b92915050565b600082601f830112613b1557600080fd5b8135613b258482602086016139ea565b91505092915050565b600082601f830112613b3f57600080fd5b8135613b4f848260208601613a28565b91505092915050565b600081359050613b6781614840565b92915050565b600060208284031215613b7f57600080fd5b6000613b8d84828501613a66565b91505092915050565b60008060408385031215613ba957600080fd5b6000613bb785828601613a66565b9250506020613bc885828601613a66565b9150509250929050565b600080600060608486031215613be757600080fd5b6000613bf586828701613a66565b9350506020613c0686828701613a66565b9250506040613c1786828701613b58565b9150509250925092565b60008060008060808587031215613c3757600080fd5b6000613c4587828801613a66565b9450506020613c5687828801613a66565b9350506040613c6787828801613b58565b925050606085013567ffffffffffffffff811115613c8457600080fd5b613c9087828801613b04565b91505092959194509250565b60008060408385031215613caf57600080fd5b6000613cbd85828601613a66565b9250506020613cce85828601613ac5565b9150509250929050565b60008060408385031215613ceb57600080fd5b6000613cf985828601613a66565b9250506020613d0a85828601613b58565b9150509250929050565b60008060208385031215613d2757600080fd5b600083013567ffffffffffffffff811115613d4157600080fd5b613d4d85828601613a7b565b92509250509250929050565b600060208284031215613d6b57600080fd5b6000613d7984828501613ada565b91505092915050565b600060208284031215613d9457600080fd5b6000613da284828501613aef565b91505092915050565b600060208284031215613dbd57600080fd5b600082013567ffffffffffffffff811115613dd757600080fd5b613de384828501613b2e565b91505092915050565b600080600080600060808688031215613e0457600080fd5b600086013567ffffffffffffffff811115613e1e57600080fd5b613e2a88828901613b2e565b955050602086013567ffffffffffffffff811115613e4757600080fd5b613e5388828901613b2e565b9450506040613e6488828901613b58565b935050606086013567ffffffffffffffff811115613e8157600080fd5b613e8d88828901613a7b565b92509250509295509295909350565b600060208284031215613eae57600080fd5b6000613ebc84828501613b58565b91505092915050565b60008060408385031215613ed857600080fd5b6000613ee685828601613b58565b9250506020613ef785828601613b58565b9150509250929050565b6000613f0d8383613fb7565b905092915050565b613f1e816146fc565b82525050565b613f2d816146ea565b82525050565b6000613f3e82614689565b613f4881856146ac565b935083602082028501613f5a85614679565b8060005b85811015613f965784840389528151613f778582613f01565b9450613f828361469f565b925060208a01995050600181019050613f5e565b50829750879550505050505092915050565b613fb18161470e565b82525050565b6000613fc282614694565b613fcc81856146bd565b9350613fdc81856020860161479e565b613fe5816147d3565b840191505092915050565b6000613ffb82614694565b61400581856146ce565b935061401581856020860161479e565b61401e816147d3565b840191505092915050565b600061403482614694565b61403e81856146df565b935061404e81856020860161479e565b80840191505092915050565b60006140676016836146ce565b91507f546f6b656e2055524920616c72656164792075736564000000000000000000006000830152602082019050919050565b60006140a76017836146ce565b91507f546f6b656e206e616d6520616c726561647920757365640000000000000000006000830152602082019050919050565b60006140e76012836146ce565b91507f546f6b656e206e6f7420666f722073616c6500000000000000000000000000006000830152602082019050919050565b60006141276027836146ce565b91507f537570706c69656420746f6b656e496420646f65732072656666657220746f2060008301527f6120746f6b656e000000000000000000000000000000000000000000000000006020830152604082019050919050565b600061418d6016836146ce565b91507f43616c6c6572206e6f7420746f6b656e206f776e6572000000000000000000006000830152602082019050919050565b60006141cd6015836146ce565b91507f4e6f7420656e6f7567682065746865722073656e7400000000000000000000006000830152602082019050919050565b600061420d6015836146ce565b91507f43616c6c657220697320746f6b656e206f776e657200000000000000000000006000830152602082019050919050565b600061424d601a836146ce565b91507f436f6c6f722070616c6574746520616c726561647920757365640000000000006000830152602082019050919050565b600061428d6018836146ce565b91507f546f6b656e206f776e65722061646472657373207a65726f00000000000000006000830152602082019050919050565b60006142cd602b836146ce565b91507f537570706c69656420746f6b656e496420646f6573206e6f742072656666657260008301527f20746f206120746f6b656e0000000000000000000000000000000000000000006020830152604082019050919050565b61432f81614770565b82525050565b60006143418284614029565b915081905092915050565b60006020820190506143616000830184613f24565b92915050565b600060208201905081810360008301526143818184613f33565b905092915050565b600060208201905061439e6000830184613fa8565b92915050565b600060208201905081810360008301526143be8184613ff0565b905092915050565b600060208201905081810360008301526143df8161405a565b9050919050565b600060208201905081810360008301526143ff8161409a565b9050919050565b6000602082019050818103600083015261441f816140da565b9050919050565b6000602082019050818103600083015261443f8161411a565b9050919050565b6000602082019050818103600083015261445f81614180565b9050919050565b6000602082019050818103600083015261447f816141c0565b9050919050565b6000602082019050818103600083015261449f81614200565b9050919050565b600060208201905081810360008301526144bf81614240565b9050919050565b600060208201905081810360008301526144df81614280565b9050919050565b600060208201905081810360008301526144ff816142c0565b9050919050565b600060208201905061451b6000830184614326565b92915050565b600061012082019050614537600083018c614326565b8181036020830152614549818b613ff0565b9050818103604083015261455d818a613ff0565b905061456c6060830189613f15565b6145796080830188613f15565b61458660a0830187613f15565b61459360c0830186614326565b6145a060e0830185614326565b6145ae610100830184613fa8565b9a9950505050505050505050565b6000604051905081810181811067ffffffffffffffff821117156145e3576145e26147d1565b5b8060405250919050565b600067ffffffffffffffff821115614608576146076147d1565b5b602082029050602081019050919050565b600067ffffffffffffffff821115614634576146336147d1565b5b601f19601f8301169050602081019050919050565b600067ffffffffffffffff821115614664576146636147d1565b5b601f19601f8301169050602081019050919050565b6000819050602082019050919050565b600081519050919050565b600081519050919050565b6000602082019050919050565b600082825260208201905092915050565b600082825260208201905092915050565b600082825260208201905092915050565b600081905092915050565b60006146f582614750565b9050919050565b600061470782614750565b9050919050565b60008115159050919050565b6000819050919050565b60007fffffffff0000000000000000000000000000000000000000000000000000000082169050919050565b600073ffffffffffffffffffffffffffffffffffffffff82169050919050565b6000819050919050565b600061478736848461398d565b905092915050565b82818337600083830152505050565b60005b838110156147bc5780820151818401526020810190506147a1565b838111156147cb576000848401525b50505050565bfe5b6000601f19601f8301169050919050565b6147ed816146ea565b81146147f857600080fd5b50565b6148048161470e565b811461480f57600080fd5b50565b61481b8161471a565b811461482657600080fd5b50565b61483281614724565b811461483d57600080fd5b50565b61484981614770565b811461485457600080fd5b5056fe456e756d657261626c655365743a20696e646578206f7574206f6620626f756e64734552433732313a207472616e7366657220746f206e6f6e20455243373231526563656976657220696d706c656d656e7465724552433732313a207472616e7366657220746f20746865207a65726f2061646472657373416464726573733a20696e73756666696369656e742062616c616e636520666f722063616c6c4552433732313a206f70657261746f7220717565727920666f72206e6f6e6578697374656e7420746f6b656e4552433732313a20617070726f76652063616c6c6572206973206e6f74206f776e6572206e6f7220617070726f76656420666f7220616c6c4552433732313a2062616c616e636520717565727920666f7220746865207a65726f20616464726573734552433732313a206f776e657220717565727920666f72206e6f6e6578697374656e7420746f6b656e456e756d657261626c654d61703a20696e646578206f7574206f6620626f756e64734552433732313a20617070726f76656420717565727920666f72206e6f6e6578697374656e7420746f6b656e4552433732314d657461646174613a2055524920736574206f66206e6f6e6578697374656e7420746f6b656e4552433732313a207472616e73666572206f6620746f6b656e2074686174206973206e6f74206f776e4552433732314d657461646174613a2055524920717565727920666f72206e6f6e6578697374656e7420746f6b656e4552433732313a20617070726f76616c20746f2063757272656e74206f776e65724552433732313a207472616e736665722063616c6c6572206973206e6f74206f776e6572206e6f7220617070726f766564a264697066735822122091f69216694025f26db5bc8099f81b8b54d1573c3f09139abb3f6de1dbba59df64736f6c63430007060033",
  "immutableReferences": {},
  "source": "// SPDX-License-Identifier: MIT\npragma solidity >=0.4.21 <0.8.0;\npragma abicoder v2;\n\nimport \"./ERC721.sol\";\n\ncontract CryptoToys is ERC721 {\n    // ======================\n    // Structs\n    // ======================\n\n    struct CryptoToy {\n        uint256 tokenId;\n        string tokenName;\n        string tokenURI;\n        address payable mintedBy;\n        address payable currentOwner;\n        address payable previousOwner;\n        uint256 price;\n        uint256 numberOfTransfers;\n        bool forSale;\n    }\n\n    // ======================\n    // Fields\n    // ======================\n\n    string public collectionName;\n    string public collectionNameSymbol;\n    uint256 public cryptoToyCounter;\n\n    mapping(uint256 => CryptoToy) public allCryptoToys;\n    mapping(string => bool) public tokenNameUsed;\n    mapping(bytes32 => bool) public colorPaletteUsed;\n    mapping(string => bool) public tokenURIUsed;\n\n    // ======================\n    // Modifiers\n    // ======================\n\n    modifier onlyTokenOwner(uint256 _tokenId) {\n        require(msg.sender == ownerOf(_tokenId), \"Caller not token owner\");\n        _;\n    }\n\n    // ======================\n    // Constructor\n    // ======================\n\n    constructor() ERC721(\"Crypto Toys Collection\", \"CT\") {\n        collectionName = name();\n        collectionNameSymbol = symbol();\n    }\n\n    // ======================\n    // Getters\n    // ======================\n\n    function getTokenOwner(uint256 _tokenId) public view returns (address) {\n        return ownerOf(_tokenId);\n    }\n\n    function getTokenMetaData(uint _tokenId)\n        public\n        view\n        returns (string memory)\n    {\n        return tokenURI(_tokenId);\n    }\n\n    function getNumberOfTokensMinted() public view returns (uint256) {\n        return totalSupply();\n    }\n\n    function getNumberOfTokensOwned(address _owner)\n        public\n        view\n        returns (uint256)\n    {\n        return balanceOf(_owner);\n    }\n\n    function getTokenExists(uint256 _tokenId) public view returns (bool) {\n        return _exists(_tokenId);\n    }\n\n    function isColorPaletteUsed(string[] calldata _colors)\n        external\n        view\n        returns (bool)\n    {\n        return colorPaletteUsed[_encodeColorPalette(_colors)];\n    }\n\n    // ======================\n    // Mutators\n    // ======================\n\n    function mintCryptoToy(\n        string memory _name,\n        string memory _tokenURI,\n        uint256 _price,\n        string[] calldata _colors\n    ) external {\n        _requireTokenNotExist(cryptoToyCounter + 1);\n        _requireUniqueToken(_name, _tokenURI, _colors);\n        cryptoToyCounter++;\n        // mint the token and set uri\n        _mint(msg.sender, cryptoToyCounter);\n        _setTokenURI(cryptoToyCounter, _tokenURI);\n        // mark token minted\n        colorPaletteUsed[_encodeColorPalette(_colors)];\n        tokenURIUsed[_tokenURI] = true;\n        tokenNameUsed[_name] = true;\n        // add crypto toy to mapping\n        allCryptoToys[cryptoToyCounter] = CryptoToy(\n            cryptoToyCounter,\n            _name,\n            _tokenURI,\n            msg.sender,\n            msg.sender,\n            address(0),\n            _price,\n            0,\n            true\n        );\n    }\n\n    // buy a token by passing in the token's id\n    function buyToken(uint256 _tokenId) public payable {\n        _requireTokenExists(_tokenId);\n        _requireEligibleForBuying(_tokenId);\n\n        CryptoToy memory cryptotoy = allCryptoToys[_tokenId];\n        require(msg.value >= cryptotoy.price, \"Not enough ether sent\");\n\n        // transfer the token from owner to the caller of the function (buyer)\n        _transfer(ownerOf(_tokenId), msg.sender, _tokenId);\n\n        // change token\n        address payable sendTo = cryptotoy.currentOwner;\n        sendTo.transfer(msg.value);\n        cryptotoy.previousOwner = cryptotoy.currentOwner;\n        cryptotoy.currentOwner = msg.sender;\n        cryptotoy.numberOfTransfers += 1;\n\n        // save changed token\n        allCryptoToys[_tokenId] = cryptotoy;\n    }\n\n    function changeTokenPrice(uint256 _tokenId, uint256 _newPrice)\n        public\n        onlyTokenOwner(_tokenId)\n    {\n        _requireTokenExists(_tokenId);\n\n        // update token's price with new price\n        allCryptoToys[_tokenId].price = _newPrice;\n    }\n\n    // switch between set for sale and set not for sale\n    function toggleForSale(uint256 _tokenId) public onlyTokenOwner(_tokenId) {\n        _requireTokenExists(_tokenId);\n\n        // toggle set for sale\n        allCryptoToys[_tokenId].forSale = !allCryptoToys[_tokenId].forSale;\n    }\n\n    // ======================\n    // Internal\n    // ======================\n\n    function _requireTokenExists(uint256 _tokenId) internal view {\n        require(\n            _exists(_tokenId),\n            \"Supplied tokenId does not reffer to a token\"\n        );\n    }\n\n    function _requireTokenNotExist(uint256 _tokenId) internal view {\n        require(!_exists(_tokenId), \"Supplied tokenId does reffer to a token\");\n    }\n\n    function _encodeColorPalette(string[] memory _colors)\n        internal\n        pure\n        returns (bytes32)\n    {\n        return keccak256(abi.encode(_colors));\n    }\n\n    function _requireUniqueToken(\n        string memory _name,\n        string memory _tokenURI,\n        string[] calldata _colors\n    ) internal view {\n        require(\n            !colorPaletteUsed[_encodeColorPalette(_colors)],\n            \"Color palette already used\"\n        );\n        require(!tokenURIUsed[_tokenURI], \"Token URI already used\");\n        require(!tokenNameUsed[_name], \"Token name already used\");\n    }\n\n    function _requireEligibleForBuying(uint256 _tokenId) internal view {\n        address tokenOwner = ownerOf(_tokenId);\n        require(tokenOwner != address(0), \"Token owner address zero\");\n        require(tokenOwner != msg.sender, \"Caller is token owner\");\n\n        require(allCryptoToys[_tokenId].forSale, \"Token not for sale\");\n    }\n}\n",
  "sourcePath": "/Users/nksazonov/Documents/Programming/NFT-Marketplace-cryptotoys/src/contracts/CryptoToys.sol",
  "compiler": {
    "name": "solc",
    "version": "0.7.6+commit.7338295f.Emscripten.clang"
  },
  "schemaVersion": "3.4.10",
  "updatedAt": "2022-11-22T12:37:06.781Z",
  "networkType": "ethereum",
  "devdoc": {
    "kind": "dev",
    "methods": {
      "approve(address,uint256)": {
        "details": "See {IERC721-approve}."
      },
      "balanceOf(address)": {
        "details": "See {IERC721-balanceOf}."
      },
      "baseURI()": {
        "details": "Returns the base URI set via {_setBaseURI}. This will be automatically added as a prefix in {tokenURI} to each token's URI, or to the token ID if no specific URI is set for that token ID."
      },
      "getApproved(uint256)": {
        "details": "See {IERC721-getApproved}."
      },
      "isApprovedForAll(address,address)": {
        "details": "See {IERC721-isApprovedForAll}."
      },
      "name()": {
        "details": "See {IERC721Metadata-name}."
      },
      "ownerOf(uint256)": {
        "details": "See {IERC721-ownerOf}."
      },
      "safeTransferFrom(address,address,uint256)": {
        "details": "See {IERC721-safeTransferFrom}."
      },
      "safeTransferFrom(address,address,uint256,bytes)": {
        "details": "See {IERC721-safeTransferFrom}."
      },
      "setApprovalForAll(address,bool)": {
        "details": "See {IERC721-setApprovalForAll}."
      },
      "supportsInterface(bytes4)": {
        "details": "See {IERC165-supportsInterface}. Time complexity O(1), guaranteed to always use less than 30 000 gas."
      },
      "symbol()": {
        "details": "See {IERC721Metadata-symbol}."
      },
      "tokenByIndex(uint256)": {
        "details": "See {IERC721Enumerable-tokenByIndex}."
      },
      "tokenOfOwnerByIndex(address,uint256)": {
        "details": "See {IERC721Enumerable-tokenOfOwnerByIndex}."
      },
      "tokenURI(uint256)": {
        "details": "See {IERC721Metadata-tokenURI}."
      },
      "totalSupply()": {
        "details": "See {IERC721Enumerable-totalSupply}."
      },
      "transferFrom(address,address,uint256)": {
        "details": "See {IERC721-transferFrom}."
      }
    },
    "version": 1
  },
  "userdoc": {
    "kind": "user",
    "methods": {},
    "version": 1
  }
}