{
  "contractName": "CryptoToys",
  "abi": [
    {
      "inputs": [],
      "stateMutability": "nonpayable",
      "type": "constructor"
    },
    {
      "anonymous": false,
      "inputs": [
        {
          "indexed": true,
          "internalType": "address",
          "name": "owner",
          "type": "address"
        },
        {
          "indexed": true,
          "internalType": "address",
          "name": "approved",
          "type": "address"
        },
        {
          "indexed": true,
          "internalType": "uint256",
          "name": "tokenId",
          "type": "uint256"
        }
      ],
      "name": "Approval",
      "type": "event"
    },
    {
      "anonymous": false,
      "inputs": [
        {
          "indexed": true,
          "internalType": "address",
          "name": "owner",
          "type": "address"
        },
        {
          "indexed": true,
          "internalType": "address",
          "name": "operator",
          "type": "address"
        },
        {
          "indexed": false,
          "internalType": "bool",
          "name": "approved",
          "type": "bool"
        }
      ],
      "name": "ApprovalForAll",
      "type": "event"
    },
    {
      "anonymous": false,
      "inputs": [
        {
          "indexed": true,
          "internalType": "address",
          "name": "from",
          "type": "address"
        },
        {
          "indexed": true,
          "internalType": "address",
          "name": "to",
          "type": "address"
        },
        {
          "indexed": true,
          "internalType": "uint256",
          "name": "tokenId",
          "type": "uint256"
        }
      ],
      "name": "Transfer",
      "type": "event"
    },
    {
      "inputs": [
        {
          "internalType": "uint256",
          "name": "",
          "type": "uint256"
        }
      ],
      "name": "allCryptoToys",
      "outputs": [
        {
          "internalType": "uint256",
          "name": "tokenId",
          "type": "uint256"
        },
        {
          "internalType": "string",
          "name": "tokenName",
          "type": "string"
        },
        {
          "internalType": "string",
          "name": "tokenURI",
          "type": "string"
        },
        {
          "internalType": "address payable",
          "name": "mintedBy",
          "type": "address"
        },
        {
          "internalType": "address payable",
          "name": "currentOwner",
          "type": "address"
        },
        {
          "internalType": "address payable",
          "name": "previousOwner",
          "type": "address"
        },
        {
          "internalType": "uint256",
          "name": "price",
          "type": "uint256"
        },
        {
          "internalType": "uint256",
          "name": "numberOfTransfers",
          "type": "uint256"
        },
        {
          "internalType": "bool",
          "name": "forSale",
          "type": "bool"
        }
      ],
      "stateMutability": "view",
      "type": "function",
      "constant": true
    },
    {
      "inputs": [
        {
          "internalType": "address",
          "name": "to",
          "type": "address"
        },
        {
          "internalType": "uint256",
          "name": "tokenId",
          "type": "uint256"
        }
      ],
      "name": "approve",
      "outputs": [],
      "stateMutability": "nonpayable",
      "type": "function"
    },
    {
      "inputs": [
        {
          "internalType": "address",
          "name": "owner",
          "type": "address"
        }
      ],
      "name": "balanceOf",
      "outputs": [
        {
          "internalType": "uint256",
          "name": "",
          "type": "uint256"
        }
      ],
      "stateMutability": "view",
      "type": "function",
      "constant": true
    },
    {
      "inputs": [],
      "name": "baseURI",
      "outputs": [
        {
          "internalType": "string",
          "name": "",
          "type": "string"
        }
      ],
      "stateMutability": "view",
      "type": "function",
      "constant": true
    },
    {
      "inputs": [],
      "name": "collectionName",
      "outputs": [
        {
          "internalType": "string",
          "name": "",
          "type": "string"
        }
      ],
      "stateMutability": "view",
      "type": "function",
      "constant": true
    },
    {
      "inputs": [],
      "name": "collectionNameSymbol",
      "outputs": [
        {
          "internalType": "string",
          "name": "",
          "type": "string"
        }
      ],
      "stateMutability": "view",
      "type": "function",
      "constant": true
    },
    {
      "inputs": [
        {
          "internalType": "bytes32",
          "name": "",
          "type": "bytes32"
        }
      ],
      "name": "colorPaletteUsed",
      "outputs": [
        {
          "internalType": "bool",
          "name": "",
          "type": "bool"
        }
      ],
      "stateMutability": "view",
      "type": "function",
      "constant": true
    },
    {
      "inputs": [],
      "name": "cryptoToyCounter",
      "outputs": [
        {
          "internalType": "uint256",
          "name": "",
          "type": "uint256"
        }
      ],
      "stateMutability": "view",
      "type": "function",
      "constant": true
    },
    {
      "inputs": [
        {
          "internalType": "uint256",
          "name": "tokenId",
          "type": "uint256"
        }
      ],
      "name": "getApproved",
      "outputs": [
        {
          "internalType": "address",
          "name": "",
          "type": "address"
        }
      ],
      "stateMutability": "view",
      "type": "function",
      "constant": true
    },
    {
      "inputs": [
        {
          "internalType": "address",
          "name": "owner",
          "type": "address"
        },
        {
          "internalType": "address",
          "name": "operator",
          "type": "address"
        }
      ],
      "name": "isApprovedForAll",
      "outputs": [
        {
          "internalType": "bool",
          "name": "",
          "type": "bool"
        }
      ],
      "stateMutability": "view",
      "type": "function",
      "constant": true
    },
    {
      "inputs": [],
      "name": "name",
      "outputs": [
        {
          "internalType": "string",
          "name": "",
          "type": "string"
        }
      ],
      "stateMutability": "view",
      "type": "function",
      "constant": true
    },
    {
      "inputs": [
        {
          "internalType": "uint256",
          "name": "tokenId",
          "type": "uint256"
        }
      ],
      "name": "ownerOf",
      "outputs": [
        {
          "internalType": "address",
          "name": "",
          "type": "address"
        }
      ],
      "stateMutability": "view",
      "type": "function",
      "constant": true
    },
    {
      "inputs": [
        {
          "internalType": "address",
          "name": "from",
          "type": "address"
        },
        {
          "internalType": "address",
          "name": "to",
          "type": "address"
        },
        {
          "internalType": "uint256",
          "name": "tokenId",
          "type": "uint256"
        }
      ],
      "name": "safeTransferFrom",
      "outputs": [],
      "stateMutability": "nonpayable",
      "type": "function"
    },
    {
      "inputs": [
        {
          "internalType": "address",
          "name": "from",
          "type": "address"
        },
        {
          "internalType": "address",
          "name": "to",
          "type": "address"
        },
        {
          "internalType": "uint256",
          "name": "tokenId",
          "type": "uint256"
        },
        {
          "internalType": "bytes",
          "name": "_data",
          "type": "bytes"
        }
      ],
      "name": "safeTransferFrom",
      "outputs": [],
      "stateMutability": "nonpayable",
      "type": "function"
    },
    {
      "inputs": [
        {
          "internalType": "address",
          "name": "operator",
          "type": "address"
        },
        {
          "internalType": "bool",
          "name": "approved",
          "type": "bool"
        }
      ],
      "name": "setApprovalForAll",
      "outputs": [],
      "stateMutability": "nonpayable",
      "type": "function"
    },
    {
      "inputs": [
        {
          "internalType": "bytes4",
          "name": "interfaceId",
          "type": "bytes4"
        }
      ],
      "name": "supportsInterface",
      "outputs": [
        {
          "internalType": "bool",
          "name": "",
          "type": "bool"
        }
      ],
      "stateMutability": "view",
      "type": "function",
      "constant": true
    },
    {
      "inputs": [],
      "name": "symbol",
      "outputs": [
        {
          "internalType": "string",
          "name": "",
          "type": "string"
        }
      ],
      "stateMutability": "view",
      "type": "function",
      "constant": true
    },
    {
      "inputs": [
        {
          "internalType": "uint256",
          "name": "index",
          "type": "uint256"
        }
      ],
      "name": "tokenByIndex",
      "outputs": [
        {
          "internalType": "uint256",
          "name": "",
          "type": "uint256"
        }
      ],
      "stateMutability": "view",
      "type": "function",
      "constant": true
    },
    {
      "inputs": [
        {
          "internalType": "string",
          "name": "",
          "type": "string"
        }
      ],
      "name": "tokenNameUsed",
      "outputs": [
        {
          "internalType": "bool",
          "name": "",
          "type": "bool"
        }
      ],
      "stateMutability": "view",
      "type": "function",
      "constant": true
    },
    {
      "inputs": [
        {
          "internalType": "address",
          "name": "owner",
          "type": "address"
        },
        {
          "internalType": "uint256",
          "name": "index",
          "type": "uint256"
        }
      ],
      "name": "tokenOfOwnerByIndex",
      "outputs": [
        {
          "internalType": "uint256",
          "name": "",
          "type": "uint256"
        }
      ],
      "stateMutability": "view",
      "type": "function",
      "constant": true
    },
    {
      "inputs": [
        {
          "internalType": "uint256",
          "name": "tokenId",
          "type": "uint256"
        }
      ],
      "name": "tokenURI",
      "outputs": [
        {
          "internalType": "string",
          "name": "",
          "type": "string"
        }
      ],
      "stateMutability": "view",
      "type": "function",
      "constant": true
    },
    {
      "inputs": [
        {
          "internalType": "string",
          "name": "",
          "type": "string"
        }
      ],
      "name": "tokenURIUsed",
      "outputs": [
        {
          "internalType": "bool",
          "name": "",
          "type": "bool"
        }
      ],
      "stateMutability": "view",
      "type": "function",
      "constant": true
    },
    {
      "inputs": [],
      "name": "totalSupply",
      "outputs": [
        {
          "internalType": "uint256",
          "name": "",
          "type": "uint256"
        }
      ],
      "stateMutability": "view",
      "type": "function",
      "constant": true
    },
    {
      "inputs": [
        {
          "internalType": "address",
          "name": "from",
          "type": "address"
        },
        {
          "internalType": "address",
          "name": "to",
          "type": "address"
        },
        {
          "internalType": "uint256",
          "name": "tokenId",
          "type": "uint256"
        }
      ],
      "name": "transferFrom",
      "outputs": [],
      "stateMutability": "nonpayable",
      "type": "function"
    },
    {
      "inputs": [
        {
          "internalType": "uint256",
          "name": "_tokenId",
          "type": "uint256"
        }
      ],
      "name": "getTokenOwner",
      "outputs": [
        {
          "internalType": "address",
          "name": "",
          "type": "address"
        }
      ],
      "stateMutability": "view",
      "type": "function",
      "constant": true
    },
    {
      "inputs": [
        {
          "internalType": "uint256",
          "name": "_tokenId",
          "type": "uint256"
        }
      ],
      "name": "getTokenMetaData",
      "outputs": [
        {
          "internalType": "string",
          "name": "",
          "type": "string"
        }
      ],
      "stateMutability": "view",
      "type": "function",
      "constant": true
    },
    {
      "inputs": [],
      "name": "getNumberOfTokensMinted",
      "outputs": [
        {
          "internalType": "uint256",
          "name": "",
          "type": "uint256"
        }
      ],
      "stateMutability": "view",
      "type": "function",
      "constant": true
    },
    {
      "inputs": [
        {
          "internalType": "address",
          "name": "_owner",
          "type": "address"
        }
      ],
      "name": "getTotalNumberOfTokensOwnedByAnAddress",
      "outputs": [
        {
          "internalType": "uint256",
          "name": "",
          "type": "uint256"
        }
      ],
      "stateMutability": "view",
      "type": "function",
      "constant": true
    },
    {
      "inputs": [
        {
          "internalType": "uint256",
          "name": "_tokenId",
          "type": "uint256"
        }
      ],
      "name": "getTokenExists",
      "outputs": [
        {
          "internalType": "bool",
          "name": "",
          "type": "bool"
        }
      ],
      "stateMutability": "view",
      "type": "function",
      "constant": true
    },
    {
      "inputs": [
        {
          "internalType": "string",
          "name": "_name",
          "type": "string"
        },
        {
          "internalType": "string",
          "name": "_tokenURI",
          "type": "string"
        },
        {
          "internalType": "uint256",
          "name": "_price",
          "type": "uint256"
        },
        {
          "internalType": "string[]",
          "name": "_colors",
          "type": "string[]"
        }
      ],
      "name": "mintCryptoToy",
      "outputs": [],
      "stateMutability": "nonpayable",
      "type": "function"
    },
    {
      "inputs": [
        {
          "internalType": "uint256",
          "name": "_tokenId",
          "type": "uint256"
        }
      ],
      "name": "buyToken",
      "outputs": [],
      "stateMutability": "payable",
      "type": "function",
      "payable": true
    },
    {
      "inputs": [
        {
          "internalType": "uint256",
          "name": "_tokenId",
          "type": "uint256"
        },
        {
          "internalType": "uint256",
          "name": "_newPrice",
          "type": "uint256"
        }
      ],
      "name": "changeTokenPrice",
      "outputs": [],
      "stateMutability": "nonpayable",
      "type": "function"
    },
    {
      "inputs": [
        {
          "internalType": "uint256",
          "name": "_tokenId",
          "type": "uint256"
        }
      ],
      "name": "toggleForSale",
      "outputs": [],
      "stateMutability": "nonpayable",
      "type": "function"
    }
  ],
  "bytecode": "0x60806040523480156200001157600080fd5b506040518060400160405280601681526020017f43727970746f20546f797320436f6c6c656374696f6e000000000000000000008152506040518060400160405280600281526020017f4354000000000000000000000000000000000000000000000000000000000000815250620000966301ffc9a760e01b6200016860201b60201c565b8160069080519060200190620000ae929190620003bd565b508060079080519060200190620000c7929190620003bd565b50620000e06380ac58cd60e01b6200016860201b60201c565b620000f8635b5e139f60e01b6200016860201b60201c565b6200011063780e9d6360e01b6200016860201b60201c565b5050620001226200027160201b60201c565b600a908051906020019062000139929190620003bd565b506200014a6200031760201b60201c565b600b908051906020019062000161929190620003bd565b5062000473565b63ffffffff60e01b817bffffffffffffffffffffffffffffffffffffffffffffffffffffffff1916141562000205576040517f08c379a000000000000000000000000000000000000000000000000000000000815260040180806020018281038252601c8152602001807f4552433136353a20696e76616c696420696e746572666163652069640000000081525060200191505060405180910390fd5b6001600080837bffffffffffffffffffffffffffffffffffffffffffffffffffffffff19167bffffffffffffffffffffffffffffffffffffffffffffffffffffffff1916815260200190815260200160002060006101000a81548160ff02191690831515021790555050565b606060068054600181600116156101000203166002900480601f0160208091040260200160405190810160405280929190818152602001828054600181600116156101000203166002900480156200030d5780601f10620002e1576101008083540402835291602001916200030d565b820191906000526020600020905b815481529060010190602001808311620002ef57829003601f168201915b5050505050905090565b606060078054600181600116156101000203166002900480601f016020809104026020016040519081016040528092919081815260200182805460018160011615610100020316600290048015620003b35780601f106200038757610100808354040283529160200191620003b3565b820191906000526020600020905b8154815290600101906020018083116200039557829003601f168201915b5050505050905090565b828054600181600116156101000203166002900490600052602060002090601f016020900481019282620003f5576000855562000441565b82601f106200041057805160ff191683800117855562000441565b8280016001018555821562000441579182015b828111156200044057825182559160200191906001019062000423565b5b50905062000450919062000454565b5090565b5b808211156200046f57600081600090555060010162000455565b5090565b614a3a80620004836000396000f3fe6080604052600436106101ee5760003560e01c806367c623cf1161010d578063a32018b9116100a0578063c5ffa3061161006f578063c5ffa3061461077a578063c87b56dd146107b7578063cc151f3a146107f4578063e5326ab11461081f578063e985e9c51461084a576101ee565b8063a32018b9146106ae578063a5cd761f146106d7578063b77c92f214610714578063b88d4fde14610751576101ee565b8063739fe54b116100dc578063739fe54b146105f4578063899c66761461063157806395d89b411461065a578063a22cb46514610685576101ee565b806367c623cf146105245780636c0360eb146105615780636f9507f91461058c57806370a08231146105b7576101ee565b80632f745c59116101855780634f6ccce7116101545780634f6ccce71461043c578063512f93301461047957806362e8e8ac146104be5780636352211e146104e7576101ee565b80632f745c591461036e57806342842e0e146103ab57806343902850146103d45780634847f54614610411576101ee565b8063142687f3116101c1578063142687f3146102c157806318160ddd146102fe57806323b872dd146103295780632d296bf114610352576101ee565b806301ffc9a7146101f357806306fdde0314610230578063081812fc1461025b578063095ea7b314610298575b600080fd5b3480156101ff57600080fd5b5061021a60048036038101906102159190613cb6565b610887565b60405161022791906142bd565b60405180910390f35b34801561023c57600080fd5b506102456108ee565b60405161025291906142d8565b60405180910390f35b34801561026757600080fd5b50610282600480360381019061027d9190613dd0565b610990565b60405161028f9190614280565b60405180910390f35b3480156102a457600080fd5b506102bf60048036038101906102ba9190613c51565b610a2b565b005b3480156102cd57600080fd5b506102e860048036038101906102e39190613dd0565b610b6f565b6040516102f591906142bd565b60405180910390f35b34801561030a57600080fd5b50610313610b81565b604051610320919061443a565b60405180910390f35b34801561033557600080fd5b50610350600480360381019061034b9190613b4b565b610b92565b005b61036c60048036038101906103679190613dd0565b610c08565b005b34801561037a57600080fd5b5061039560048036038101906103909190613c51565b611155565b6040516103a2919061443a565b60405180910390f35b3480156103b757600080fd5b506103d260048036038101906103cd9190613b4b565b6111b0565b005b3480156103e057600080fd5b506103fb60048036038101906103f69190613ae6565b6111d0565b604051610408919061443a565b60405180910390f35b34801561041d57600080fd5b506104266111e2565b604051610433919061443a565b60405180910390f35b34801561044857600080fd5b50610463600480360381019061045e9190613dd0565b6111e8565b604051610470919061443a565b60405180910390f35b34801561048557600080fd5b506104a0600480360381019061049b9190613dd0565b61120b565b6040516104b599989796959493929190614455565b60405180910390f35b3480156104ca57600080fd5b506104e560048036038101906104e09190613df9565b6113f6565b005b3480156104f357600080fd5b5061050e60048036038101906105099190613dd0565b611496565b60405161051b9190614280565b60405180910390f35b34801561053057600080fd5b5061054b60048036038101906105469190613dd0565b6114cd565b60405161055891906142d8565b60405180910390f35b34801561056d57600080fd5b506105766114df565b60405161058391906142d8565b60405180910390f35b34801561059857600080fd5b506105a1611581565b6040516105ae91906142d8565b60405180910390f35b3480156105c357600080fd5b506105de60048036038101906105d99190613ae6565b61161f565b6040516105eb919061443a565b60405180910390f35b34801561060057600080fd5b5061061b60048036038101906106169190613cdf565b6116f4565b60405161062891906142bd565b60405180910390f35b34801561063d57600080fd5b5061065860048036038101906106539190613d20565b61172a565b005b34801561066657600080fd5b5061066f611a05565b60405161067c91906142d8565b60405180910390f35b34801561069157600080fd5b506106ac60048036038101906106a79190613c15565b611aa7565b005b3480156106ba57600080fd5b506106d560048036038101906106d09190613dd0565b611c5d565b005b3480156106e357600080fd5b506106fe60048036038101906106f99190613dd0565b611d33565b60405161070b9190614280565b60405180910390f35b34801561072057600080fd5b5061073b60048036038101906107369190613cdf565b611d45565b60405161074891906142bd565b60405180910390f35b34801561075d57600080fd5b5061077860048036038101906107739190613b9a565b611d7b565b005b34801561078657600080fd5b506107a1600480360381019061079c9190613c8d565b611df3565b6040516107ae91906142bd565b60405180910390f35b3480156107c357600080fd5b506107de60048036038101906107d99190613dd0565b611e13565b6040516107eb91906142d8565b60405180910390f35b34801561080057600080fd5b506108096120e4565b604051610816919061443a565b60405180910390f35b34801561082b57600080fd5b506108346120f3565b60405161084191906142d8565b60405180910390f35b34801561085657600080fd5b50610871600480360381019061086c9190613b0f565b612191565b60405161087e91906142bd565b60405180910390f35b6000806000837bffffffffffffffffffffffffffffffffffffffffffffffffffffffff19167bffffffffffffffffffffffffffffffffffffffffffffffffffffffff1916815260200190815260200160002060009054906101000a900460ff169050919050565b606060068054600181600116156101000203166002900480601f0160208091040260200160405190810160405280929190818152602001828054600181600116156101000203166002900480156109865780601f1061095b57610100808354040283529160200191610986565b820191906000526020600020905b81548152906001019060200180831161096957829003601f168201915b5050505050905090565b600061099b82612225565b6109f0576040517f08c379a000000000000000000000000000000000000000000000000000000000815260040180806020018281038252602c815260200180614903602c913960400191505060405180910390fd5b6004600083815260200190815260200160002060009054906101000a900473ffffffffffffffffffffffffffffffffffffffff169050919050565b6000610a3682611496565b90508073ffffffffffffffffffffffffffffffffffffffff168373ffffffffffffffffffffffffffffffffffffffff161415610abd576040517f08c379a00000000000000000000000000000000000000000000000000000000081526004018080602001828103825260218152602001806149b36021913960400191505060405180910390fd5b8073ffffffffffffffffffffffffffffffffffffffff16610adc612242565b73ffffffffffffffffffffffffffffffffffffffff161480610b0b5750610b0a81610b05612242565b612191565b5b610b60576040517f08c379a00000000000000000000000000000000000000000000000000000000081526004018080602001828103825260388152602001806148566038913960400191505060405180910390fd5b610b6a838361224a565b505050565b6000610b7a82612225565b9050919050565b6000610b8d6002612303565b905090565b610ba3610b9d612242565b82612318565b610bf8576040517f08c379a00000000000000000000000000000000000000000000000000000000081526004018080602001828103825260318152602001806149d46031913960400191505060405180910390fd5b610c0383838361240c565b505050565b610c118161264f565b610c1a8161269a565b6000600d60008381526020019081526020016000206040518061012001604052908160008201548152602001600182018054600181600116156101000203166002900480601f016020809104026020016040519081016040528092919081815260200182805460018160011615610100020316600290048015610cde5780601f10610cb357610100808354040283529160200191610cde565b820191906000526020600020905b815481529060010190602001808311610cc157829003601f168201915b50505050508152602001600282018054600181600116156101000203166002900480601f016020809104026020016040519081016040528092919081815260200182805460018160011615610100020316600290048015610d805780601f10610d5557610100808354040283529160200191610d80565b820191906000526020600020905b815481529060010190602001808311610d6357829003601f168201915b505050505081526020016003820160009054906101000a900473ffffffffffffffffffffffffffffffffffffffff1673ffffffffffffffffffffffffffffffffffffffff1673ffffffffffffffffffffffffffffffffffffffff1681526020016004820160009054906101000a900473ffffffffffffffffffffffffffffffffffffffff1673ffffffffffffffffffffffffffffffffffffffff1673ffffffffffffffffffffffffffffffffffffffff1681526020016005820160009054906101000a900473ffffffffffffffffffffffffffffffffffffffff1673ffffffffffffffffffffffffffffffffffffffff1673ffffffffffffffffffffffffffffffffffffffff16815260200160068201548152602001600782015481526020016008820160009054906101000a900460ff16151515158152505090508060c00151341015610f03576040517f08c379a0000000000000000000000000000000000000000000000000000000008152600401610efa9061439a565b60405180910390fd5b610f16610f0f83611496565b338461240c565b6000816080015190508073ffffffffffffffffffffffffffffffffffffffff166108fc349081150290604051600060405180830381858888f19350505050158015610f65573d6000803e3d6000fd5b5081608001518260a0019073ffffffffffffffffffffffffffffffffffffffff16908173ffffffffffffffffffffffffffffffffffffffff168152505033826080019073ffffffffffffffffffffffffffffffffffffffff16908173ffffffffffffffffffffffffffffffffffffffff168152505060018260e001818151019150818152505081600d600085815260200190815260200160002060008201518160000155602082015181600101908051906020019061102592919061385b565b50604082015181600201908051906020019061104292919061385b565b5060608201518160030160006101000a81548173ffffffffffffffffffffffffffffffffffffffff021916908373ffffffffffffffffffffffffffffffffffffffff16021790555060808201518160040160006101000a81548173ffffffffffffffffffffffffffffffffffffffff021916908373ffffffffffffffffffffffffffffffffffffffff16021790555060a08201518160050160006101000a81548173ffffffffffffffffffffffffffffffffffffffff021916908373ffffffffffffffffffffffffffffffffffffffff16021790555060c0820151816006015560e082015181600701556101008201518160080160006101000a81548160ff021916908315150217905550905050505050565b60006111a882600160008673ffffffffffffffffffffffffffffffffffffffff1673ffffffffffffffffffffffffffffffffffffffff1681526020019081526020016000206127ed90919063ffffffff16565b905092915050565b6111cb83838360405180602001604052806000815250611d7b565b505050565b60006111db8261161f565b9050919050565b600c5481565b6000806111ff83600261280790919063ffffffff16565b50905080915050919050565b600d602052806000526040600020600091509050806000015490806001018054600181600116156101000203166002900480601f0160208091040260200160405190810160405280929190818152602001828054600181600116156101000203166002900480156112bd5780601f10611292576101008083540402835291602001916112bd565b820191906000526020600020905b8154815290600101906020018083116112a057829003601f168201915b505050505090806002018054600181600116156101000203166002900480601f01602080910402602001604051908101604052809291908181526020018280546001816001161561010002031660029004801561135b5780601f106113305761010080835404028352916020019161135b565b820191906000526020600020905b81548152906001019060200180831161133e57829003601f168201915b5050505050908060030160009054906101000a900473ffffffffffffffffffffffffffffffffffffffff16908060040160009054906101000a900473ffffffffffffffffffffffffffffffffffffffff16908060050160009054906101000a900473ffffffffffffffffffffffffffffffffffffffff16908060060154908060070154908060080160009054906101000a900460ff16905089565b8161140081611496565b73ffffffffffffffffffffffffffffffffffffffff163373ffffffffffffffffffffffffffffffffffffffff161461146d576040517f08c379a00000000000000000000000000000000000000000000000000000000081526004016114649061437a565b60405180910390fd5b6114768361264f565b81600d600085815260200190815260200160002060060181905550505050565b60006114c6826040518060600160405280602981526020016148b86029913960026128339092919063ffffffff16565b9050919050565b60606114d882611e13565b9050919050565b606060098054600181600116156101000203166002900480601f0160208091040260200160405190810160405280929190818152602001828054600181600116156101000203166002900480156115775780601f1061154c57610100808354040283529160200191611577565b820191906000526020600020905b81548152906001019060200180831161155a57829003601f168201915b5050505050905090565b600b8054600181600116156101000203166002900480601f0160208091040260200160405190810160405280929190818152602001828054600181600116156101000203166002900480156116175780601f106115ec57610100808354040283529160200191611617565b820191906000526020600020905b8154815290600101906020018083116115fa57829003601f168201915b505050505081565b60008073ffffffffffffffffffffffffffffffffffffffff168273ffffffffffffffffffffffffffffffffffffffff1614156116a6576040517f08c379a000000000000000000000000000000000000000000000000000000000815260040180806020018281038252602a81526020018061488e602a913960400191505060405180910390fd5b6116ed600160008473ffffffffffffffffffffffffffffffffffffffff1673ffffffffffffffffffffffffffffffffffffffff168152602001908152602001600020612852565b9050919050565b600e818051602081018201805184825260208301602085012081835280955050505050506000915054906101000a900460ff1681565b6117386001600c5401612867565b611744858584846128b3565b600c6000815480929190600101919050555061176233600c54612a06565b61176e600c5485612bfa565b600f600061178784849061178291906146ae565b612c84565b815260200190815260200160002060009054906101000a90505060016010856040516117b39190614269565b908152602001604051809103902060006101000a81548160ff0219169083151502179055506001600e866040516117ea9190614269565b908152602001604051809103902060006101000a81548160ff021916908315150217905550604051806101200160405280600c5481526020018681526020018581526020013373ffffffffffffffffffffffffffffffffffffffff1681526020013373ffffffffffffffffffffffffffffffffffffffff168152602001600073ffffffffffffffffffffffffffffffffffffffff1681526020018481526020016000815260200160011515815250600d6000600c5481526020019081526020016000206000820151816000015560208201518160010190805190602001906118d392919061385b565b5060408201518160020190805190602001906118f092919061385b565b5060608201518160030160006101000a81548173ffffffffffffffffffffffffffffffffffffffff021916908373ffffffffffffffffffffffffffffffffffffffff16021790555060808201518160040160006101000a81548173ffffffffffffffffffffffffffffffffffffffff021916908373ffffffffffffffffffffffffffffffffffffffff16021790555060a08201518160050160006101000a81548173ffffffffffffffffffffffffffffffffffffffff021916908373ffffffffffffffffffffffffffffffffffffffff16021790555060c0820151816006015560e082015181600701556101008201518160080160006101000a81548160ff0219169083151502179055509050505050505050565b606060078054600181600116156101000203166002900480601f016020809104026020016040519081016040528092919081815260200182805460018160011615610100020316600290048015611a9d5780601f10611a7257610100808354040283529160200191611a9d565b820191906000526020600020905b815481529060010190602001808311611a8057829003601f168201915b5050505050905090565b611aaf612242565b73ffffffffffffffffffffffffffffffffffffffff168273ffffffffffffffffffffffffffffffffffffffff161415611b50576040517f08c379a00000000000000000000000000000000000000000000000000000000081526004018080602001828103825260198152602001807f4552433732313a20617070726f766520746f2063616c6c65720000000000000081525060200191505060405180910390fd5b8060056000611b5d612242565b73ffffffffffffffffffffffffffffffffffffffff1673ffffffffffffffffffffffffffffffffffffffff16815260200190815260200160002060008473ffffffffffffffffffffffffffffffffffffffff1673ffffffffffffffffffffffffffffffffffffffff16815260200190815260200160002060006101000a81548160ff0219169083151502179055508173ffffffffffffffffffffffffffffffffffffffff16611c0a612242565b73ffffffffffffffffffffffffffffffffffffffff167f17307eab39ab6107e8899845ad3d59bd9653f200f220920489ca2b5937696c318360405180821515815260200191505060405180910390a35050565b80611c6781611496565b73ffffffffffffffffffffffffffffffffffffffff163373ffffffffffffffffffffffffffffffffffffffff1614611cd4576040517f08c379a0000000000000000000000000000000000000000000000000000000008152600401611ccb9061437a565b60405180910390fd5b611cdd8261264f565b600d600083815260200190815260200160002060080160009054906101000a900460ff1615600d600084815260200190815260200160002060080160006101000a81548160ff0219169083151502179055505050565b6000611d3e82611496565b9050919050565b6010818051602081018201805184825260208301602085012081835280955050505050506000915054906101000a900460ff1681565b611d8c611d86612242565b83612318565b611de1576040517f08c379a00000000000000000000000000000000000000000000000000000000081526004018080602001828103825260318152602001806149d46031913960400191505060405180910390fd5b611ded84848484612cb4565b50505050565b600f6020528060005260406000206000915054906101000a900460ff1681565b6060611e1e82612225565b611e73576040517f08c379a000000000000000000000000000000000000000000000000000000000815260040180806020018281038252602f815260200180614984602f913960400191505060405180910390fd5b6000600860008481526020019081526020016000208054600181600116156101000203166002900480601f016020809104026020016040519081016040528092919081815260200182805460018160011615610100020316600290048015611f1c5780601f10611ef157610100808354040283529160200191611f1c565b820191906000526020600020905b815481529060010190602001808311611eff57829003601f168201915b505050505090506000611f2d6114df565b9050600081511415611f435781925050506120df565b6000825111156120145780826040516020018083805190602001908083835b60208310611f855780518252602082019150602081019050602083039250611f62565b6001836020036101000a03801982511681845116808217855250505050505090500182805190602001908083835b60208310611fd65780518252602082019150602081019050602083039250611fb3565b6001836020036101000a03801982511681845116808217855250505050505090500192505050604051602081830303815290604052925050506120df565b8061201e85612d26565b6040516020018083805190602001908083835b602083106120545780518252602082019150602081019050602083039250612031565b6001836020036101000a03801982511681845116808217855250505050505090500182805190602001908083835b602083106120a55780518252602082019150602081019050602083039250612082565b6001836020036101000a03801982511681845116808217855250505050505090500192505050604051602081830303815290604052925050505b919050565b60006120ee610b81565b905090565b600a8054600181600116156101000203166002900480601f0160208091040260200160405190810160405280929190818152602001828054600181600116156101000203166002900480156121895780601f1061215e57610100808354040283529160200191612189565b820191906000526020600020905b81548152906001019060200180831161216c57829003601f168201915b505050505081565b6000600560008473ffffffffffffffffffffffffffffffffffffffff1673ffffffffffffffffffffffffffffffffffffffff16815260200190815260200160002060008373ffffffffffffffffffffffffffffffffffffffff1673ffffffffffffffffffffffffffffffffffffffff16815260200190815260200160002060009054906101000a900460ff16905092915050565b600061223b826002612e6d90919063ffffffff16565b9050919050565b600033905090565b816004600083815260200190815260200160002060006101000a81548173ffffffffffffffffffffffffffffffffffffffff021916908373ffffffffffffffffffffffffffffffffffffffff160217905550808273ffffffffffffffffffffffffffffffffffffffff166122bd83611496565b73ffffffffffffffffffffffffffffffffffffffff167f8c5be1e5ebec7d5bd14f71427d1e84f3dd0314c0f7b2291e5b200ac8c7c3b92560405160405180910390a45050565b600061231182600001612e87565b9050919050565b600061232382612225565b612378576040517f08c379a000000000000000000000000000000000000000000000000000000000815260040180806020018281038252602c81526020018061482a602c913960400191505060405180910390fd5b600061238383611496565b90508073ffffffffffffffffffffffffffffffffffffffff168473ffffffffffffffffffffffffffffffffffffffff1614806123f257508373ffffffffffffffffffffffffffffffffffffffff166123da84610990565b73ffffffffffffffffffffffffffffffffffffffff16145b8061240357506124028185612191565b5b91505092915050565b8273ffffffffffffffffffffffffffffffffffffffff1661242c82611496565b73ffffffffffffffffffffffffffffffffffffffff1614612498576040517f08c379a000000000000000000000000000000000000000000000000000000000815260040180806020018281038252602981526020018061495b6029913960400191505060405180910390fd5b600073ffffffffffffffffffffffffffffffffffffffff168273ffffffffffffffffffffffffffffffffffffffff16141561251e576040517f08c379a00000000000000000000000000000000000000000000000000000000081526004018080602001828103825260248152602001806147e06024913960400191505060405180910390fd5b612529838383612e98565b61253460008261224a565b61258581600160008673ffffffffffffffffffffffffffffffffffffffff1673ffffffffffffffffffffffffffffffffffffffff168152602001908152602001600020612e9d90919063ffffffff16565b506125d781600160008573ffffffffffffffffffffffffffffffffffffffff1673ffffffffffffffffffffffffffffffffffffffff168152602001908152602001600020612eb790919063ffffffff16565b506125ee81836002612ed19092919063ffffffff16565b50808273ffffffffffffffffffffffffffffffffffffffff168473ffffffffffffffffffffffffffffffffffffffff167fddf252ad1be2c89b69c2b068fc378daa952ba7f163c4a11628f55a4df523b3ef60405160405180910390a4505050565b61265881612225565b612697576040517f08c379a000000000000000000000000000000000000000000000000000000000815260040161268e9061441a565b60405180910390fd5b50565b60006126a582611496565b9050600073ffffffffffffffffffffffffffffffffffffffff168173ffffffffffffffffffffffffffffffffffffffff161415612717576040517f08c379a000000000000000000000000000000000000000000000000000000000815260040161270e906143fa565b60405180910390fd5b3373ffffffffffffffffffffffffffffffffffffffff168173ffffffffffffffffffffffffffffffffffffffff161415612786576040517f08c379a000000000000000000000000000000000000000000000000000000000815260040161277d906143ba565b60405180910390fd5b600d600083815260200190815260200160002060080160009054906101000a900460ff166127e9576040517f08c379a00000000000000000000000000000000000000000000000000000000081526004016127e09061433a565b60405180910390fd5b5050565b60006127fc8360000183612f06565b60001c905092915050565b60008060008061281a8660000186612f89565b915091508160001c8160001c9350935050509250929050565b6000612846846000018460001b84613022565b60001c90509392505050565b600061286082600001613118565b9050919050565b61287081612225565b156128b0576040517f08c379a00000000000000000000000000000000000000000000000000000000081526004016128a79061435a565b60405180910390fd5b50565b600f60006128cc8484906128c791906146ae565b612c84565b815260200190815260200160002060009054906101000a900460ff1615612928576040517f08c379a000000000000000000000000000000000000000000000000000000000815260040161291f906143da565b60405180910390fd5b6010836040516129389190614269565b908152602001604051809103902060009054906101000a900460ff1615612994576040517f08c379a000000000000000000000000000000000000000000000000000000000815260040161298b906142fa565b60405180910390fd5b600e846040516129a49190614269565b908152602001604051809103902060009054906101000a900460ff1615612a00576040517f08c379a00000000000000000000000000000000000000000000000000000000081526004016129f79061431a565b60405180910390fd5b50505050565b600073ffffffffffffffffffffffffffffffffffffffff168273ffffffffffffffffffffffffffffffffffffffff161415612aa9576040517f08c379a00000000000000000000000000000000000000000000000000000000081526004018080602001828103825260208152602001807f4552433732313a206d696e7420746f20746865207a65726f206164647265737381525060200191505060405180910390fd5b612ab281612225565b15612b25576040517f08c379a000000000000000000000000000000000000000000000000000000000815260040180806020018281038252601c8152602001807f4552433732313a20746f6b656e20616c7265616479206d696e7465640000000081525060200191505060405180910390fd5b612b3160008383612e98565b612b8281600160008573ffffffffffffffffffffffffffffffffffffffff1673ffffffffffffffffffffffffffffffffffffffff168152602001908152602001600020612eb790919063ffffffff16565b50612b9981836002612ed19092919063ffffffff16565b50808273ffffffffffffffffffffffffffffffffffffffff16600073ffffffffffffffffffffffffffffffffffffffff167fddf252ad1be2c89b69c2b068fc378daa952ba7f163c4a11628f55a4df523b3ef60405160405180910390a45050565b612c0382612225565b612c58576040517f08c379a000000000000000000000000000000000000000000000000000000000815260040180806020018281038252602c81526020018061492f602c913960400191505060405180910390fd5b80600860008481526020019081526020016000209080519060200190612c7f92919061385b565b505050565b600081604051602001612c97919061429b565b604051602081830303815290604052805190602001209050919050565b612cbf84848461240c565b612ccb84848484613129565b612d20576040517f08c379a00000000000000000000000000000000000000000000000000000000081526004018080602001828103825260328152602001806147ae6032913960400191505060405180910390fd5b50505050565b60606000821415612d6e576040518060400160405280600181526020017f30000000000000000000000000000000000000000000000000000000000000008152509050612e68565b600082905060005b60008214612d98578080600101915050600a8281612d9057fe5b049150612d76565b60008167ffffffffffffffff81118015612db157600080fd5b506040519080825280601f01601f191660200182016040528015612de45781602001600182028036833780820191505090505b50905060006001830390508593505b60008414612e6057600a8481612e0557fe5b0660300160f81b82828060019003935081518110612e1f57fe5b60200101907effffffffffffffffffffffffffffffffffffffffffffffffffffffffffffff1916908160001a905350600a8481612e5857fe5b049350612df3565b819450505050505b919050565b6000612e7f836000018360001b613342565b905092915050565b600081600001805490509050919050565b505050565b6000612eaf836000018360001b613365565b905092915050565b6000612ec9836000018360001b61344d565b905092915050565b6000612efd846000018460001b8473ffffffffffffffffffffffffffffffffffffffff1660001b6134bd565b90509392505050565b600081836000018054905011612f67576040517f08c379a000000000000000000000000000000000000000000000000000000000815260040180806020018281038252602281526020018061478c6022913960400191505060405180910390fd5b826000018281548110612f7657fe5b9060005260206000200154905092915050565b60008082846000018054905011612feb576040517f08c379a00000000000000000000000000000000000000000000000000000000081526004018080602001828103825260228152602001806148e16022913960400191505060405180910390fd5b6000846000018481548110612ffc57fe5b906000526020600020906002020190508060000154816001015492509250509250929050565b600080846001016000858152602001908152602001600020549050600081141583906130e9576040517f08c379a00000000000000000000000000000000000000000000000000000000081526004018080602001828103825283818151815260200191508051906020019080838360005b838110156130ae578082015181840152602081019050613093565b50505050905090810190601f1680156130db5780820380516001836020036101000a031916815260200191505b509250505060405180910390fd5b508460000160018203815481106130fc57fe5b9060005260206000209060020201600101549150509392505050565b600081600001805490509050919050565b600061314a8473ffffffffffffffffffffffffffffffffffffffff16613599565b613157576001905061333a565b60006132c163150b7a0260e01b61316c612242565b888787604051602401808573ffffffffffffffffffffffffffffffffffffffff1681526020018473ffffffffffffffffffffffffffffffffffffffff16815260200183815260200180602001828103825283818151815260200191508051906020019080838360005b838110156131f05780820151818401526020810190506131d5565b50505050905090810190601f16801561321d5780820380516001836020036101000a031916815260200191505b5095505050505050604051602081830303815290604052907bffffffffffffffffffffffffffffffffffffffffffffffffffffffff19166020820180517bffffffffffffffffffffffffffffffffffffffffffffffffffffffff83818316178352505050506040518060600160405280603281526020016147ae603291398773ffffffffffffffffffffffffffffffffffffffff166135ac9092919063ffffffff16565b905060008180602001905160208110156132da57600080fd5b8101908080519060200190929190505050905063150b7a0260e01b7bffffffffffffffffffffffffffffffffffffffffffffffffffffffff1916817bffffffffffffffffffffffffffffffffffffffffffffffffffffffff191614925050505b949350505050565b600080836001016000848152602001908152602001600020541415905092915050565b6000808360010160008481526020019081526020016000205490506000811461344157600060018203905060006001866000018054905003905060008660000182815481106133b057fe5b90600052602060002001549050808760000184815481106133cd57fe5b906000526020600020018190555060018301876001016000838152602001908152602001600020819055508660000180548061340557fe5b60019003818190600052602060002001600090559055866001016000878152602001908152602001600020600090556001945050505050613447565b60009150505b92915050565b600061345983836135c4565b6134b25782600001829080600181540180825580915050600190039060005260206000200160009091909190915055826000018054905083600101600084815260200190815260200160002081905550600190506134b7565b600090505b92915050565b600080846001016000858152602001908152602001600020549050600081141561356457846000016040518060400160405280868152602001858152509080600181540180825580915050600190039060005260206000209060020201600090919091909150600082015181600001556020820151816001015550508460000180549050856001016000868152602001908152602001600020819055506001915050613592565b8285600001600183038154811061357757fe5b90600052602060002090600202016001018190555060009150505b9392505050565b600080823b905060008111915050919050565b60606135bb84846000856135e7565b90509392505050565b600080836001016000848152602001908152602001600020541415905092915050565b606082471015613642576040517f08c379a00000000000000000000000000000000000000000000000000000000081526004018080602001828103825260268152602001806148046026913960400191505060405180910390fd5b61364b85613599565b6136bd576040517f08c379a000000000000000000000000000000000000000000000000000000000815260040180806020018281038252601d8152602001807f416464726573733a2063616c6c20746f206e6f6e2d636f6e747261637400000081525060200191505060405180910390fd5b6000808673ffffffffffffffffffffffffffffffffffffffff1685876040518082805190602001908083835b6020831061370c57805182526020820191506020810190506020830392506136e9565b6001836020036101000a03801982511681845116808217855250505050505090500191505060006040518083038185875af1925050503d806000811461376e576040519150601f19603f3d011682016040523d82523d6000602084013e613773565b606091505b509150915061378382828661378f565b92505050949350505050565b6060831561379f57829050613854565b6000835111156137b25782518084602001fd5b816040517f08c379a00000000000000000000000000000000000000000000000000000000081526004018080602001828103825283818151815260200191508051906020019080838360005b838110156138195780820151818401526020810190506137fe565b50505050905090810190601f1680156138465780820380516001836020036101000a031916815260200191505b509250505060405180910390fd5b9392505050565b828054600181600116156101000203166002900490600052602060002090601f01602090048101928261389157600085556138d8565b82601f106138aa57805160ff19168380011785556138d8565b828001600101855582156138d8579182015b828111156138d75782518255916020019190600101906138bc565b5b5090506138e591906138e9565b5090565b5b808211156139025760008160009055506001016138ea565b5090565b600061391961391484614521565b6144f0565b9050808382526020820190508260005b85811015613959578135850161393f8882613aa7565b845260208401935060208301925050600181019050613929565b5050509392505050565b60006139766139718461454d565b6144f0565b90508281526020810184848401111561398e57600080fd5b6139998482856146c3565b509392505050565b60006139b46139af8461457d565b6144f0565b9050828152602081018484840111156139cc57600080fd5b6139d78482856146c3565b509392505050565b6000813590506139ee81614718565b92915050565b60008083601f840112613a0657600080fd5b8235905067ffffffffffffffff811115613a1f57600080fd5b602083019150836020820283011115613a3757600080fd5b9250929050565b600081359050613a4d8161472f565b92915050565b600081359050613a6281614746565b92915050565b600081359050613a778161475d565b92915050565b600082601f830112613a8e57600080fd5b8135613a9e848260208601613963565b91505092915050565b600082601f830112613ab857600080fd5b8135613ac88482602086016139a1565b91505092915050565b600081359050613ae081614774565b92915050565b600060208284031215613af857600080fd5b6000613b06848285016139df565b91505092915050565b60008060408385031215613b2257600080fd5b6000613b30858286016139df565b9250506020613b41858286016139df565b9150509250929050565b600080600060608486031215613b6057600080fd5b6000613b6e868287016139df565b9350506020613b7f868287016139df565b9250506040613b9086828701613ad1565b9150509250925092565b60008060008060808587031215613bb057600080fd5b6000613bbe878288016139df565b9450506020613bcf878288016139df565b9350506040613be087828801613ad1565b925050606085013567ffffffffffffffff811115613bfd57600080fd5b613c0987828801613a7d565b91505092959194509250565b60008060408385031215613c2857600080fd5b6000613c36858286016139df565b9250506020613c4785828601613a3e565b9150509250929050565b60008060408385031215613c6457600080fd5b6000613c72858286016139df565b9250506020613c8385828601613ad1565b9150509250929050565b600060208284031215613c9f57600080fd5b6000613cad84828501613a53565b91505092915050565b600060208284031215613cc857600080fd5b6000613cd684828501613a68565b91505092915050565b600060208284031215613cf157600080fd5b600082013567ffffffffffffffff811115613d0b57600080fd5b613d1784828501613aa7565b91505092915050565b600080600080600060808688031215613d3857600080fd5b600086013567ffffffffffffffff811115613d5257600080fd5b613d5e88828901613aa7565b955050602086013567ffffffffffffffff811115613d7b57600080fd5b613d8788828901613aa7565b9450506040613d9888828901613ad1565b935050606086013567ffffffffffffffff811115613db557600080fd5b613dc1888289016139f4565b92509250509295509295909350565b600060208284031215613de257600080fd5b6000613df084828501613ad1565b91505092915050565b60008060408385031215613e0c57600080fd5b6000613e1a85828601613ad1565b9250506020613e2b85828601613ad1565b9150509250929050565b6000613e418383613eeb565b905092915050565b613e5281614630565b82525050565b613e618161461e565b82525050565b6000613e72826145bd565b613e7c81856145e0565b935083602082028501613e8e856145ad565b8060005b85811015613eca5784840389528151613eab8582613e35565b9450613eb6836145d3565b925060208a01995050600181019050613e92565b50829750879550505050505092915050565b613ee581614642565b82525050565b6000613ef6826145c8565b613f0081856145f1565b9350613f108185602086016146d2565b613f1981614707565b840191505092915050565b6000613f2f826145c8565b613f398185614602565b9350613f498185602086016146d2565b613f5281614707565b840191505092915050565b6000613f68826145c8565b613f728185614613565b9350613f828185602086016146d2565b80840191505092915050565b6000613f9b601683614602565b91507f546f6b656e2055524920616c72656164792075736564000000000000000000006000830152602082019050919050565b6000613fdb601783614602565b91507f546f6b656e206e616d6520616c726561647920757365640000000000000000006000830152602082019050919050565b600061401b601283614602565b91507f546f6b656e206e6f7420666f722073616c6500000000000000000000000000006000830152602082019050919050565b600061405b602783614602565b91507f537570706c69656420746f6b656e496420646f65732072656666657220746f2060008301527f6120746f6b656e000000000000000000000000000000000000000000000000006020830152604082019050919050565b60006140c1601683614602565b91507f43616c6c6572206e6f7420746f6b656e206f776e6572000000000000000000006000830152602082019050919050565b6000614101601583614602565b91507f4e6f7420656e6f7567682065746865722073656e7400000000000000000000006000830152602082019050919050565b6000614141601583614602565b91507f43616c6c657220697320746f6b656e206f776e657200000000000000000000006000830152602082019050919050565b6000614181601a83614602565b91507f436f6c6f722070616c6574746520616c726561647920757365640000000000006000830152602082019050919050565b60006141c1601883614602565b91507f546f6b656e206f776e65722061646472657373207a65726f00000000000000006000830152602082019050919050565b6000614201602b83614602565b91507f537570706c69656420746f6b656e496420646f6573206e6f742072656666657260008301527f20746f206120746f6b656e0000000000000000000000000000000000000000006020830152604082019050919050565b614263816146a4565b82525050565b60006142758284613f5d565b915081905092915050565b60006020820190506142956000830184613e58565b92915050565b600060208201905081810360008301526142b58184613e67565b905092915050565b60006020820190506142d26000830184613edc565b92915050565b600060208201905081810360008301526142f28184613f24565b905092915050565b6000602082019050818103600083015261431381613f8e565b9050919050565b6000602082019050818103600083015261433381613fce565b9050919050565b600060208201905081810360008301526143538161400e565b9050919050565b600060208201905081810360008301526143738161404e565b9050919050565b60006020820190508181036000830152614393816140b4565b9050919050565b600060208201905081810360008301526143b3816140f4565b9050919050565b600060208201905081810360008301526143d381614134565b9050919050565b600060208201905081810360008301526143f381614174565b9050919050565b60006020820190508181036000830152614413816141b4565b9050919050565b60006020820190508181036000830152614433816141f4565b9050919050565b600060208201905061444f600083018461425a565b92915050565b60006101208201905061446b600083018c61425a565b818103602083015261447d818b613f24565b90508181036040830152614491818a613f24565b90506144a06060830189613e49565b6144ad6080830188613e49565b6144ba60a0830187613e49565b6144c760c083018661425a565b6144d460e083018561425a565b6144e2610100830184613edc565b9a9950505050505050505050565b6000604051905081810181811067ffffffffffffffff8211171561451757614516614705565b5b8060405250919050565b600067ffffffffffffffff82111561453c5761453b614705565b5b602082029050602081019050919050565b600067ffffffffffffffff82111561456857614567614705565b5b601f19601f8301169050602081019050919050565b600067ffffffffffffffff82111561459857614597614705565b5b601f19601f8301169050602081019050919050565b6000819050602082019050919050565b600081519050919050565b600081519050919050565b6000602082019050919050565b600082825260208201905092915050565b600082825260208201905092915050565b600082825260208201905092915050565b600081905092915050565b600061462982614684565b9050919050565b600061463b82614684565b9050919050565b60008115159050919050565b6000819050919050565b60007fffffffff0000000000000000000000000000000000000000000000000000000082169050919050565b600073ffffffffffffffffffffffffffffffffffffffff82169050919050565b6000819050919050565b60006146bb368484613906565b905092915050565b82818337600083830152505050565b60005b838110156146f05780820151818401526020810190506146d5565b838111156146ff576000848401525b50505050565bfe5b6000601f19601f8301169050919050565b6147218161461e565b811461472c57600080fd5b50565b61473881614642565b811461474357600080fd5b50565b61474f8161464e565b811461475a57600080fd5b50565b61476681614658565b811461477157600080fd5b50565b61477d816146a4565b811461478857600080fd5b5056fe456e756d657261626c655365743a20696e646578206f7574206f6620626f756e64734552433732313a207472616e7366657220746f206e6f6e20455243373231526563656976657220696d706c656d656e7465724552433732313a207472616e7366657220746f20746865207a65726f2061646472657373416464726573733a20696e73756666696369656e742062616c616e636520666f722063616c6c4552433732313a206f70657261746f7220717565727920666f72206e6f6e6578697374656e7420746f6b656e4552433732313a20617070726f76652063616c6c6572206973206e6f74206f776e6572206e6f7220617070726f76656420666f7220616c6c4552433732313a2062616c616e636520717565727920666f7220746865207a65726f20616464726573734552433732313a206f776e657220717565727920666f72206e6f6e6578697374656e7420746f6b656e456e756d657261626c654d61703a20696e646578206f7574206f6620626f756e64734552433732313a20617070726f76656420717565727920666f72206e6f6e6578697374656e7420746f6b656e4552433732314d657461646174613a2055524920736574206f66206e6f6e6578697374656e7420746f6b656e4552433732313a207472616e73666572206f6620746f6b656e2074686174206973206e6f74206f776e4552433732314d657461646174613a2055524920717565727920666f72206e6f6e6578697374656e7420746f6b656e4552433732313a20617070726f76616c20746f2063757272656e74206f776e65724552433732313a207472616e736665722063616c6c6572206973206e6f74206f776e6572206e6f7220617070726f766564a26469706673582212207552dfa6023f828d2fe2f61d1860531749a127acbe2cfdb8ef37b5d32a3f931564736f6c63430007060033",
  "immutableReferences": {},
  "source": "// SPDX-License-Identifier: MIT\npragma solidity >=0.4.21 <0.8.0;\npragma abicoder v2;\n\nimport \"./ERC721.sol\";\n\ncontract CryptoToys is ERC721 {\n    // ======================\n    // Structs\n    // ======================\n\n    struct CryptoToy {\n        uint256 tokenId;\n        string tokenName;\n        string tokenURI;\n        address payable mintedBy;\n        address payable currentOwner;\n        address payable previousOwner;\n        uint256 price;\n        uint256 numberOfTransfers;\n        bool forSale;\n    }\n\n    // ======================\n    // Fields\n    // ======================\n\n    string public collectionName;\n    string public collectionNameSymbol;\n    uint256 public cryptoToyCounter;\n\n    mapping(uint256 => CryptoToy) public allCryptoToys;\n    mapping(string => bool) public tokenNameUsed;\n    mapping(bytes32 => bool) public colorPaletteUsed;\n    mapping(string => bool) public tokenURIUsed;\n\n    // ======================\n    // Modifiers\n    // ======================\n\n    modifier onlyTokenOwner(uint256 _tokenId) {\n        require(msg.sender == ownerOf(_tokenId), \"Caller not token owner\");\n        _;\n    }\n\n    // ======================\n    // Constructor\n    // ======================\n\n    constructor() ERC721(\"Crypto Toys Collection\", \"CT\") {\n        collectionName = name();\n        collectionNameSymbol = symbol();\n    }\n\n    // ======================\n    // Getters\n    // ======================\n\n    function getTokenOwner(uint256 _tokenId) public view returns (address) {\n        return ownerOf(_tokenId);\n    }\n\n    function getTokenMetaData(uint _tokenId)\n        public\n        view\n        returns (string memory)\n    {\n        return tokenURI(_tokenId);\n    }\n\n    function getNumberOfTokensMinted() public view returns (uint256) {\n        return totalSupply();\n    }\n\n    function getTotalNumberOfTokensOwnedByAnAddress(address _owner)\n        public\n        view\n        returns (uint256)\n    {\n        return balanceOf(_owner);\n    }\n\n    function getTokenExists(uint256 _tokenId) public view returns (bool) {\n        return _exists(_tokenId);\n    }\n\n    // ======================\n    // Mutators\n    // ======================\n\n    function mintCryptoToy(\n        string memory _name,\n        string memory _tokenURI,\n        uint256 _price,\n        string[] calldata _colors\n    ) external {\n        _requireTokenNotExist(cryptoToyCounter + 1);\n        _requireUniqueToken(_name, _tokenURI, _colors);\n\n        cryptoToyCounter++;\n\n        // mint the token and set uri\n        _mint(msg.sender, cryptoToyCounter);\n        _setTokenURI(cryptoToyCounter, _tokenURI);\n\n        // mark token minted\n        colorPaletteUsed[_encodeColorPalette(_colors)];\n        tokenURIUsed[_tokenURI] = true;\n        tokenNameUsed[_name] = true;\n\n        // add crypto toy to mapping\n        allCryptoToys[cryptoToyCounter] = CryptoToy(\n            cryptoToyCounter,\n            _name,\n            _tokenURI,\n            msg.sender,\n            msg.sender,\n            address(0),\n            _price,\n            0,\n            true\n        );\n    }\n\n    // buy a token by passing in the token's id\n    function buyToken(uint256 _tokenId) public payable {\n        _requireTokenExists(_tokenId);\n        _requireEligibleForBuying(_tokenId);\n\n        CryptoToy memory cryptotoy = allCryptoToys[_tokenId];\n        require(msg.value >= cryptotoy.price, \"Not enough ether sent\");\n\n        // transfer the token from owner to the caller of the function (buyer)\n        _transfer(ownerOf(_tokenId), msg.sender, _tokenId);\n\n        // change token\n        address payable sendTo = cryptotoy.currentOwner;\n        sendTo.transfer(msg.value);\n        cryptotoy.previousOwner = cryptotoy.currentOwner;\n        cryptotoy.currentOwner = msg.sender;\n        cryptotoy.numberOfTransfers += 1;\n\n        // save changed token\n        allCryptoToys[_tokenId] = cryptotoy;\n    }\n\n    function changeTokenPrice(uint256 _tokenId, uint256 _newPrice)\n        public\n        onlyTokenOwner(_tokenId)\n    {\n        _requireTokenExists(_tokenId);\n\n        // update token's price with new price\n        allCryptoToys[_tokenId].price = _newPrice;\n    }\n\n    // switch between set for sale and set not for sale\n    function toggleForSale(uint256 _tokenId) public onlyTokenOwner(_tokenId) {\n        _requireTokenExists(_tokenId);\n\n        // toggle set for sale\n        allCryptoToys[_tokenId].forSale = !allCryptoToys[_tokenId].forSale;\n    }\n\n    // ======================\n    // Internal\n    // ======================\n\n    function _requireTokenExists(uint256 _tokenId) internal view {\n        require(\n            _exists(_tokenId),\n            \"Supplied tokenId does not reffer to a token\"\n        );\n    }\n\n    function _requireTokenNotExist(uint256 _tokenId) internal view {\n        require(!_exists(_tokenId), \"Supplied tokenId does reffer to a token\");\n    }\n\n    function _encodeColorPalette(string[] memory _colors)\n        internal\n        pure\n        returns (bytes32)\n    {\n        return keccak256(abi.encode(_colors));\n    }\n\n    function _requireUniqueToken(\n        string memory _name,\n        string memory _tokenURI,\n        string[] calldata _colors\n    ) internal view {\n        require(\n            !colorPaletteUsed[_encodeColorPalette(_colors)],\n            \"Color palette already used\"\n        );\n        require(!tokenURIUsed[_tokenURI], \"Token URI already used\");\n        require(!tokenNameUsed[_name], \"Token name already used\");\n    }\n\n    function _requireEligibleForBuying(uint256 _tokenId) internal view {\n        address tokenOwner = ownerOf(_tokenId);\n        require(tokenOwner != address(0), \"Token owner address zero\");\n        require(tokenOwner != msg.sender, \"Caller is token owner\");\n\n        require(allCryptoToys[_tokenId].forSale, \"Token not for sale\");\n    }\n}\n",
  "sourcePath": "/Users/nksazonov/Documents/Programming/NFT-Marketplace-cryptotoys/src/contracts/CryptoToys.sol",
  "compiler": {
    "name": "solc",
    "version": "0.7.6+commit.7338295f.Emscripten.clang"
  },
  "schemaVersion": "3.4.10",
  "updatedAt": "2022-11-21T22:58:00.758Z",
  "networkType": "ethereum",
  "devdoc": {
    "kind": "dev",
    "methods": {
      "approve(address,uint256)": {
        "details": "See {IERC721-approve}."
      },
      "balanceOf(address)": {
        "details": "See {IERC721-balanceOf}."
      },
      "baseURI()": {
        "details": "Returns the base URI set via {_setBaseURI}. This will be automatically added as a prefix in {tokenURI} to each token's URI, or to the token ID if no specific URI is set for that token ID."
      },
      "getApproved(uint256)": {
        "details": "See {IERC721-getApproved}."
      },
      "isApprovedForAll(address,address)": {
        "details": "See {IERC721-isApprovedForAll}."
      },
      "name()": {
        "details": "See {IERC721Metadata-name}."
      },
      "ownerOf(uint256)": {
        "details": "See {IERC721-ownerOf}."
      },
      "safeTransferFrom(address,address,uint256)": {
        "details": "See {IERC721-safeTransferFrom}."
      },
      "safeTransferFrom(address,address,uint256,bytes)": {
        "details": "See {IERC721-safeTransferFrom}."
      },
      "setApprovalForAll(address,bool)": {
        "details": "See {IERC721-setApprovalForAll}."
      },
      "supportsInterface(bytes4)": {
        "details": "See {IERC165-supportsInterface}. Time complexity O(1), guaranteed to always use less than 30 000 gas."
      },
      "symbol()": {
        "details": "See {IERC721Metadata-symbol}."
      },
      "tokenByIndex(uint256)": {
        "details": "See {IERC721Enumerable-tokenByIndex}."
      },
      "tokenOfOwnerByIndex(address,uint256)": {
        "details": "See {IERC721Enumerable-tokenOfOwnerByIndex}."
      },
      "tokenURI(uint256)": {
        "details": "See {IERC721Metadata-tokenURI}."
      },
      "totalSupply()": {
        "details": "See {IERC721Enumerable-totalSupply}."
      },
      "transferFrom(address,address,uint256)": {
        "details": "See {IERC721-transferFrom}."
      }
    },
    "version": 1
  },
  "userdoc": {
    "kind": "user",
    "methods": {},
    "version": 1
  }
}